{"abi":[{"type":"function","name":"DATA_URL","inputs":[],"outputs":[{"name":"","type":"string","internalType":"string"}],"stateMutability":"view"},{"type":"function","name":"main","inputs":[{"name":"webProof","type":"tuple","internalType":"struct WebProof","components":[{"name":"webProofJson","type":"string","internalType":"string"}]},{"name":"account","type":"address","internalType":"address"}],"outputs":[{"name":"","type":"tuple","internalType":"struct Proof","components":[{"name":"seal","type":"tuple","internalType":"struct Seal","components":[{"name":"verifierSelector","type":"bytes4","internalType":"bytes4"},{"name":"seal","type":"bytes32[8]","internalType":"bytes32[8]"},{"name":"mode","type":"uint8","internalType":"enum ProofMode"}]},{"name":"callGuestId","type":"bytes32","internalType":"bytes32"},{"name":"length","type":"uint256","internalType":"uint256"},{"name":"callAssumptions","type":"tuple","internalType":"struct CallAssumptions","components":[{"name":"proverContractAddress","type":"address","internalType":"address"},{"name":"functionSelector","type":"bytes4","internalType":"bytes4"},{"name":"settleChainId","type":"uint256","internalType":"uint256"},{"name":"settleBlockNumber","type":"uint256","internalType":"uint256"},{"name":"settleBlockHash","type":"bytes32","internalType":"bytes32"}]}]},{"name":"","type":"string","internalType":"string"},{"name":"","type":"address","internalType":"address"}],"stateMutability":"view"},{"type":"function","name":"proof","inputs":[],"outputs":[{"name":"","type":"tuple","internalType":"struct Proof","components":[{"name":"seal","type":"tuple","internalType":"struct Seal","components":[{"name":"verifierSelector","type":"bytes4","internalType":"bytes4"},{"name":"seal","type":"bytes32[8]","internalType":"bytes32[8]"},{"name":"mode","type":"uint8","internalType":"enum ProofMode"}]},{"name":"callGuestId","type":"bytes32","internalType":"bytes32"},{"name":"length","type":"uint256","internalType":"uint256"},{"name":"callAssumptions","type":"tuple","internalType":"struct CallAssumptions","components":[{"name":"proverContractAddress","type":"address","internalType":"address"},{"name":"functionSelector","type":"bytes4","internalType":"bytes4"},{"name":"settleChainId","type":"uint256","internalType":"uint256"},{"name":"settleBlockNumber","type":"uint256","internalType":"uint256"},{"name":"settleBlockHash","type":"bytes32","internalType":"bytes32"}]}]}],"stateMutability":"pure"},{"type":"function","name":"setBlock","inputs":[{"name":"blockNo","type":"uint256","internalType":"uint256"}],"outputs":[],"stateMutability":"nonpayable"},{"type":"function","name":"setChain","inputs":[{"name":"chainId","type":"uint256","internalType":"uint256"},{"name":"blockNo","type":"uint256","internalType":"uint256"}],"outputs":[],"stateMutability":"nonpayable"},{"type":"error","name":"FailedInnerCall","inputs":[]}],"bytecode":{"object":"0x6080604052348015600e575f80fd5b50611c348061001c5f395ff3fe608060405234801561000f575f80fd5b5060043610610055575f3560e01c806387cea3ae146100595780639bb2bd7f14610075578063c822d5ef14610093578063faf924cf146100c5578063ffbc5638146100e3575b5f80fd5b610073600480360381019061006e9190610c62565b6100ff565b005b61007d6101dc565b60405161008a9190610cfd565b60405180910390f35b6100ad60048036038101906100a89190610d99565b6101fb565b6040516100bc9392919061107a565b60405180910390f35b6100cd6102a4565b6040516100da91906110b9565b60405180910390f35b6100fd60048036038101906100f891906110d3565b6102b9565b005b7f2ae215ce9fde588adfdea92976dc9aa45aa006a0f63942d8f9f21bd4537972a35f1c73ffffffffffffffffffffffffffffffffffffffff166387cea3ae826040518263ffffffff1660e01b815260040161015a9190611120565b6020604051808303815f875af1158015610176573d5f803e3d5ffd5b505050506040513d601f19601f8201168201806040525081019061019a919061116e565b6101d9576040517f08c379a00000000000000000000000000000000000000000000000000000000081526004016101d0906111e3565b60405180910390fd5b50565b6040518061018001604052806101518152602001611a00610151913981565b610203610aed565b60605f8061023e6040518061018001604052806101518152602001611a006101519139876102309061138a565b61039990919063ffffffff16565b90505f6102896040518060400160405280600b81526020017f73637265656e5f6e616d650000000000000000000000000000000000000000008152508361041c90919063ffffffff16565b90506102936102a4565b818794509450945050509250925092565b6102ac610aed565b6102b4610551565b905090565b7f2ae215ce9fde588adfdea92976dc9aa45aa006a0f63942d8f9f21bd4537972a35f1c73ffffffffffffffffffffffffffffffffffffffff1663ffbc563883836040518363ffffffff1660e01b815260040161031692919061139c565b6020604051808303815f875af1158015610332573d5f803e3d5ffd5b505050506040513d601f19601f82011682018060405250810190610356919061116e565b610395576040517f08c379a000000000000000000000000000000000000000000000000000000000815260040161038c906111e3565b60405180910390fd5b5050565b6103a1610b22565b5f6103ad845f80610568565b90506103bc81602001516106ab565b6103d38382604001516108ba90919063ffffffff16565b610412576040517f08c379a00000000000000000000000000000000000000000000000000000000081526004016104099061140d565b60405180910390fd5b8091505092915050565b60605f835f01515111610464576040517f08c379a000000000000000000000000000000000000000000000000000000000815260040161045b90611475565b60405180910390fd5b5f6040518060400160405280855f015181526020018481525060405160200161048d919061158a565b60405160208183030381529060405290505f80600273f4e4fdca9d5d55e64525e314391996a15f7ec6006104c191906115d7565b73ffffffffffffffffffffffffffffffffffffffff16836040516104e59190611662565b5f60405180830381855afa9150503d805f811461051d576040519150601f19603f3d011682016040523d82523d5f602084013e610522565b606091505b509150915061053182826108e1565b508080602001905181019061054691906116e6565b935050505092915050565b610559610aed565b610561610aed565b8091505090565b610570610b22565b5f805f73f4e4fdca9d5d55e64525e314391996a15f7ec60061059291906115d7565b73ffffffffffffffffffffffffffffffffffffffff168686866040516020016105bd939291906117e0565b6040516020818303038152906040526040516105d99190611662565b5f60405180830381855afa9150503d805f8114610611576040519150601f19603f3d011682016040523d82523d5f602084013e610616565b606091505b509150915061062582826108e1565b505f8180602001905181019061063b91906118ec565b905060405180606001604052808260026004811061065c5761065b611933565b5b602002015181526020018260036004811061067a57610679611933565b5b60200201518152602001825f6004811061069757610696611933565b5b602002015181525093505050509392505050565b6106b3610905565b15610727576106e3816040518060e0016040528060ae8152602001611b5160ae91396108ba90919063ffffffff16565b610722576040517f08c379a0000000000000000000000000000000000000000000000000000000008152600401610719906119aa565b60405180910390fd5b6108b7565b61072f610922565b156107f75761073c610996565b73ffffffffffffffffffffffffffffffffffffffff16632505a3bd826040518263ffffffff1660e01b81526004016107749190610cfd565b602060405180830381865afa15801561078f573d5f803e3d5ffd5b505050506040513d601f19601f820116820180604052508101906107b3919061116e565b6107f2576040517f08c379a00000000000000000000000000000000000000000000000000000000081526004016107e9906119aa565b60405180910390fd5b6108b6565b6107ff6109b1565b73ffffffffffffffffffffffffffffffffffffffff16632505a3bd826040518263ffffffff1660e01b81526004016108379190610cfd565b602060405180830381865afa158015610852573d5f803e3d5ffd5b505050506040513d601f19601f82011682018060405250810190610876919061116e565b6108b5576040517f08c379a00000000000000000000000000000000000000000000000000000000081526004016108ac906119aa565b60405180910390fd5b5b5b50565b5f815183511480156108d9575081805190602001208380519060200120145b905092915050565b6060826108f6576108f1826109cc565b6108fe565b8190506108ff565b5b92915050565b5f61090e610a10565b8061091d575061091c610a28565b5b905090565b5f60014614806109325750600a46145b8061093d5750608946145b80610949575061014446145b8061095557506101e046145b8061096157506102eb46145b8061096d575061210546145b80610979575061a4b146145b80610985575061a4ba46145b80610991575061e70846145b905090565b5f7342fc5cdbfa5e4699c0e1e0add0c4bc421d80482f905090565b5f73ad04462241343f0775315b2873e6fe6dffcce831905090565b5f815111156109de5780518082602001fd5b6040517f1425ea4200000000000000000000000000000000000000000000000000000000815260040160405180910390fd5b5f617a69461480610a2357506204991946145b905090565b5f805f601e73f4e4fdca9d5d55e64525e314391996a15f7ec600610a4c91906115d7565b73ffffffffffffffffffffffffffffffffffffffff16604051610a6e906119eb565b5f60405180830381855afa9150503d805f8114610aa6576040519150601f19603f3d011682016040523d82523d5f602084013e610aab565b606091505b5091509150811580610abd57505f8151145b15610acc575f92505050610aea565b5f81806020019051810190610ae1919061116e565b90508093505050505b90565b6040518060800160405280610b00610b43565b81526020015f80191681526020015f8152602001610b1c610b99565b81525090565b60405180606001604052806060815260200160608152602001606081525090565b60405180606001604052805f7bffffffffffffffffffffffffffffffffffffffffffffffffffffffff19168152602001610b7b610bfb565b81526020015f6001811115610b9357610b92610edb565b5b81525090565b6040518060a001604052805f73ffffffffffffffffffffffffffffffffffffffff1681526020015f7bffffffffffffffffffffffffffffffffffffffffffffffffffffffff191681526020015f81526020015f81526020015f80191681525090565b604051806101000160405280600890602082028036833780820191505090505090565b5f604051905090565b5f80fd5b5f80fd5b5f819050919050565b610c4181610c2f565b8114610c4b575f80fd5b50565b5f81359050610c5c81610c38565b92915050565b5f60208284031215610c7757610c76610c27565b5b5f610c8484828501610c4e565b91505092915050565b5f81519050919050565b5f82825260208201905092915050565b8281835e5f83830152505050565b5f601f19601f8301169050919050565b5f610ccf82610c8d565b610cd98185610c97565b9350610ce9818560208601610ca7565b610cf281610cb5565b840191505092915050565b5f6020820190508181035f830152610d158184610cc5565b905092915050565b5f80fd5b5f60208284031215610d3657610d35610d1d565b5b81905092915050565b5f73ffffffffffffffffffffffffffffffffffffffff82169050919050565b5f610d6882610d3f565b9050919050565b610d7881610d5e565b8114610d82575f80fd5b50565b5f81359050610d9381610d6f565b92915050565b5f8060408385031215610daf57610dae610c27565b5b5f83013567ffffffffffffffff811115610dcc57610dcb610c2b565b5b610dd885828601610d21565b9250506020610de985828601610d85565b9150509250929050565b5f7fffffffff0000000000000000000000000000000000000000000000000000000082169050919050565b610e2781610df3565b82525050565b5f60089050919050565b5f81905092915050565b5f819050919050565b5f819050919050565b610e5c81610e4a565b82525050565b5f610e6d8383610e53565b60208301905092915050565b5f602082019050919050565b610e8e81610e2d565b610e988184610e37565b9250610ea382610e41565b805f5b83811015610ed3578151610eba8782610e62565b9650610ec583610e79565b925050600181019050610ea6565b505050505050565b7f4e487b71000000000000000000000000000000000000000000000000000000005f52602160045260245ffd5b60028110610f1957610f18610edb565b5b50565b5f819050610f2982610f08565b919050565b5f610f3882610f1c565b9050919050565b610f4881610f2e565b82525050565b61014082015f820151610f635f850182610e1e565b506020820151610f766020850182610e85565b506040820151610f8a610120850182610f3f565b50505050565b610f9981610c2f565b82525050565b610fa881610d5e565b82525050565b60a082015f820151610fc25f850182610f9f565b506020820151610fd56020850182610e1e565b506040820151610fe86040850182610f90565b506060820151610ffb6060850182610f90565b50608082015161100e6080850182610e53565b50505050565b61022082015f8201516110295f850182610f4e565b50602082015161103d610140850182610e53565b506040820151611051610160850182610f90565b506060820151611065610180850182610fae565b50505050565b61107481610d5e565b82525050565b5f6102608201905061108e5f830186611014565b8181036102208301526110a18185610cc5565b90506110b161024083018461106b565b949350505050565b5f610220820190506110cd5f830184611014565b92915050565b5f80604083850312156110e9576110e8610c27565b5b5f6110f685828601610c4e565b925050602061110785828601610c4e565b9150509250929050565b61111a81610c2f565b82525050565b5f6020820190506111335f830184611111565b92915050565b5f8115159050919050565b61114d81611139565b8114611157575f80fd5b50565b5f8151905061116881611144565b92915050565b5f6020828403121561118357611182610c27565b5b5f6111908482850161115a565b91505092915050565b7f4661696c6564206368656174636f646520696e766f636174696f6e00000000005f82015250565b5f6111cd601b83610c97565b91506111d882611199565b602082019050919050565b5f6020820190508181035f8301526111fa816111c1565b9050919050565b5f80fd5b7f4e487b71000000000000000000000000000000000000000000000000000000005f52604160045260245ffd5b61123b82610cb5565b810181811067ffffffffffffffff8211171561125a57611259611205565b5b80604052505050565b5f61126c610c1e565b90506112788282611232565b919050565b5f80fd5b5f80fd5b5f80fd5b5f67ffffffffffffffff8211156112a3576112a2611205565b5b6112ac82610cb5565b9050602081019050919050565b828183375f83830152505050565b5f6112d96112d484611289565b611263565b9050828152602081018484840111156112f5576112f4611285565b5b6113008482856112b9565b509392505050565b5f82601f83011261131c5761131b611281565b5b813561132c8482602086016112c7565b91505092915050565b5f6020828403121561134a57611349611201565b5b6113546020611263565b90505f82013567ffffffffffffffff8111156113735761137261127d565b5b61137f84828501611308565b5f8301525092915050565b5f6113953683611335565b9050919050565b5f6040820190506113af5f830185611111565b6113bc6020830184611111565b9392505050565b7f55524c206d69736d6174636800000000000000000000000000000000000000005f82015250565b5f6113f7600c83610c97565b9150611402826113c3565b602082019050919050565b5f6020820190508181035f830152611424816113eb565b9050919050565b7f426f647920697320656d707479000000000000000000000000000000000000005f82015250565b5f61145f600d83610c97565b915061146a8261142b565b602082019050919050565b5f6020820190508181035f83015261148c81611453565b9050919050565b5f60029050919050565b5f81905092915050565b5f819050919050565b5f82825260208201905092915050565b5f6114ca82610c8d565b6114d481856114b0565b93506114e4818560208601610ca7565b6114ed81610cb5565b840191505092915050565b5f61150383836114c0565b905092915050565b5f602082019050919050565b5f61152182611493565b61152b818561149d565b93508360208202850161153d856114a7565b805f5b85811015611578578484038952815161155985826114f8565b94506115648361150b565b925060208a01995050600181019050611540565b50829750879550505050505092915050565b5f6020820190508181035f8301526115a28184611517565b905092915050565b7f4e487b71000000000000000000000000000000000000000000000000000000005f52601160045260245ffd5b5f6115e182610d3f565b91506115ec83610d3f565b9250828201905073ffffffffffffffffffffffffffffffffffffffff811115611618576116176115aa565b5b92915050565b5f81519050919050565b5f81905092915050565b5f61163c8261161e565b6116468185611628565b9350611656818560208601610ca7565b80840191505092915050565b5f61166d8284611632565b915081905092915050565b5f61168a61168584611289565b611263565b9050828152602081018484840111156116a6576116a5611285565b5b6116b1848285610ca7565b509392505050565b5f82601f8301126116cd576116cc611281565b5b81516116dd848260208601611678565b91505092915050565b5f602082840312156116fb576116fa610c27565b5b5f82015167ffffffffffffffff81111561171857611717610c2b565b5b611724848285016116b9565b91505092915050565b5f602083015f8301518482035f86015261174782826114c0565b9150508091505092915050565b6002811061176557611764610edb565b5b50565b5f81905061177582611754565b919050565b5f61178482611768565b9050919050565b6117948161177a565b82525050565b600281106117ab576117aa610edb565b5b50565b5f8190506117bb8261179a565b919050565b5f6117ca826117ae565b9050919050565b6117da816117c0565b82525050565b5f6060820190508181035f8301526117f8818661172d565b9050611807602083018561178b565b61181460408301846117d1565b949350505050565b5f67ffffffffffffffff82111561183657611835611205565b5b602082029050919050565b5f80fd5b5f6118576118528461181c565b611263565b9050806020840283018581111561187157611870611841565b5b835b818110156118b857805167ffffffffffffffff81111561189657611895611281565b5b8086016118a389826116b9565b85526020850194505050602081019050611873565b5050509392505050565b5f82601f8301126118d6576118d5611281565b5b60046118e3848285611845565b91505092915050565b5f6020828403121561190157611900610c27565b5b5f82015167ffffffffffffffff81111561191e5761191d610c2b565b5b61192a848285016118c2565b91505092915050565b7f4e487b71000000000000000000000000000000000000000000000000000000005f52603260045260245ffd5b7f496e76616c6964206e6f74617279207075626c6963206b6579000000000000005f82015250565b5f611994601983610c97565b915061199f82611960565b602082019050919050565b5f6020820190508181035f8301526119c181611988565b9050919050565b50565b5f6119d65f83611628565b91506119e1826119c8565b5f82019050919050565b5f6119f5826119cb565b915081905091905056fe68747470733a2f2f6170692e782e636f6d2f312e312f6163636f756e742f73657474696e67732e6a736f6e3f696e636c7564655f6578745f73686172696e675f617564696f7370616365735f6c697374656e696e675f646174615f776974685f666f6c6c6f776572733d7472756526696e636c7564655f6d656e74696f6e5f66696c7465723d7472756526696e636c7564655f6e7366775f757365725f666c61673d7472756526696e636c7564655f6e7366775f61646d696e5f666c61673d7472756526696e636c7564655f72616e6b65645f74696d656c696e653d7472756526696e636c7564655f616c745f746578745f636f6d706f73653d74727565266578743d73736f436f6e6e656374696f6e7326696e636c7564655f636f756e7472795f636f64653d7472756526696e636c7564655f6578745f646d5f6e7366775f6d656469615f66696c7465723d747275652d2d2d2d2d424547494e205055424c4943204b45592d2d2d2d2d0a4d465977454159484b6f5a497a6a3043415159464b34454541416f445167414565306a786e424f6261496a37586a673654584c434d3147472f566859353635300a4f72532f6a6763624275666f2f51446646764c2f69727a4976314a536d684769566373434843776f6c684458576367653776324973513d3d0a2d2d2d2d2d454e44205055424c4943204b45592d2d2d2d2d0aa264697066735822122091df647070e1268c5c609901cfd6196b3587e8d209d39f0efee8b0537feea41664736f6c634300081a0033","linkReferences":{}},"methodIdentifiers":{"DATA_URL()":"9bb2bd7f","main((string),address)":"c822d5ef","proof()":"faf924cf","setBlock(uint256)":"87cea3ae","setChain(uint256,uint256)":"ffbc5638"},"id":74}