{"abi":[{"type":"constructor","inputs":[{"name":"_prover","type":"address","internalType":"address"}],"stateMutability":"nonpayable"},{"type":"function","name":"_setTestVerifier","inputs":[{"name":"newVerifier","type":"address","internalType":"contract IProofVerifier"}],"outputs":[],"stateMutability":"nonpayable"},{"type":"function","name":"approve","inputs":[{"name":"to","type":"address","internalType":"address"},{"name":"tokenId","type":"uint256","internalType":"uint256"}],"outputs":[],"stateMutability":"nonpayable"},{"type":"function","name":"balanceOf","inputs":[{"name":"owner","type":"address","internalType":"address"}],"outputs":[{"name":"","type":"uint256","internalType":"uint256"}],"stateMutability":"view"},{"type":"function","name":"getApproved","inputs":[{"name":"tokenId","type":"uint256","internalType":"uint256"}],"outputs":[{"name":"","type":"address","internalType":"address"}],"stateMutability":"view"},{"type":"function","name":"isApprovedForAll","inputs":[{"name":"owner","type":"address","internalType":"address"},{"name":"operator","type":"address","internalType":"address"}],"outputs":[{"name":"","type":"bool","internalType":"bool"}],"stateMutability":"view"},{"type":"function","name":"name","inputs":[],"outputs":[{"name":"","type":"string","internalType":"string"}],"stateMutability":"view"},{"type":"function","name":"ownerOf","inputs":[{"name":"tokenId","type":"uint256","internalType":"uint256"}],"outputs":[{"name":"","type":"address","internalType":"address"}],"stateMutability":"view"},{"type":"function","name":"prover","inputs":[],"outputs":[{"name":"","type":"address","internalType":"address"}],"stateMutability":"view"},{"type":"function","name":"safeTransferFrom","inputs":[{"name":"from","type":"address","internalType":"address"},{"name":"to","type":"address","internalType":"address"},{"name":"tokenId","type":"uint256","internalType":"uint256"}],"outputs":[],"stateMutability":"nonpayable"},{"type":"function","name":"safeTransferFrom","inputs":[{"name":"from","type":"address","internalType":"address"},{"name":"to","type":"address","internalType":"address"},{"name":"tokenId","type":"uint256","internalType":"uint256"},{"name":"data","type":"bytes","internalType":"bytes"}],"outputs":[],"stateMutability":"nonpayable"},{"type":"function","name":"setApprovalForAll","inputs":[{"name":"operator","type":"address","internalType":"address"},{"name":"approved","type":"bool","internalType":"bool"}],"outputs":[],"stateMutability":"nonpayable"},{"type":"function","name":"supportsInterface","inputs":[{"name":"interfaceId","type":"bytes4","internalType":"bytes4"}],"outputs":[{"name":"","type":"bool","internalType":"bool"}],"stateMutability":"view"},{"type":"function","name":"symbol","inputs":[],"outputs":[{"name":"","type":"string","internalType":"string"}],"stateMutability":"view"},{"type":"function","name":"tokenIdToMetadataUri","inputs":[{"name":"","type":"uint256","internalType":"uint256"}],"outputs":[{"name":"","type":"string","internalType":"string"}],"stateMutability":"view"},{"type":"function","name":"tokenURI","inputs":[{"name":"tokenId","type":"uint256","internalType":"uint256"}],"outputs":[{"name":"","type":"string","internalType":"string"}],"stateMutability":"view"},{"type":"function","name":"transferFrom","inputs":[{"name":"from","type":"address","internalType":"address"},{"name":"to","type":"address","internalType":"address"},{"name":"tokenId","type":"uint256","internalType":"uint256"}],"outputs":[],"stateMutability":"nonpayable"},{"type":"function","name":"verifier","inputs":[],"outputs":[{"name":"","type":"address","internalType":"contract IProofVerifier"}],"stateMutability":"view"},{"type":"function","name":"verify","inputs":[{"name":"","type":"tuple","internalType":"struct Proof","components":[{"name":"seal","type":"tuple","internalType":"struct Seal","components":[{"name":"verifierSelector","type":"bytes4","internalType":"bytes4"},{"name":"seal","type":"bytes32[8]","internalType":"bytes32[8]"},{"name":"mode","type":"uint8","internalType":"enum ProofMode"}]},{"name":"callGuestId","type":"bytes32","internalType":"bytes32"},{"name":"length","type":"uint256","internalType":"uint256"},{"name":"callAssumptions","type":"tuple","internalType":"struct CallAssumptions","components":[{"name":"proverContractAddress","type":"address","internalType":"address"},{"name":"functionSelector","type":"bytes4","internalType":"bytes4"},{"name":"settleChainId","type":"uint256","internalType":"uint256"},{"name":"settleBlockNumber","type":"uint256","internalType":"uint256"},{"name":"settleBlockHash","type":"bytes32","internalType":"bytes32"}]}]},{"name":"username","type":"string","internalType":"string"},{"name":"account","type":"address","internalType":"address"}],"outputs":[],"stateMutability":"nonpayable"},{"type":"event","name":"Approval","inputs":[{"name":"owner","type":"address","indexed":true,"internalType":"address"},{"name":"approved","type":"address","indexed":true,"internalType":"address"},{"name":"tokenId","type":"uint256","indexed":true,"internalType":"uint256"}],"anonymous":false},{"type":"event","name":"ApprovalForAll","inputs":[{"name":"owner","type":"address","indexed":true,"internalType":"address"},{"name":"operator","type":"address","indexed":true,"internalType":"address"},{"name":"approved","type":"bool","indexed":false,"internalType":"bool"}],"anonymous":false},{"type":"event","name":"Transfer","inputs":[{"name":"from","type":"address","indexed":true,"internalType":"address"},{"name":"to","type":"address","indexed":true,"internalType":"address"},{"name":"tokenId","type":"uint256","indexed":true,"internalType":"uint256"}],"anonymous":false},{"type":"error","name":"ERC721IncorrectOwner","inputs":[{"name":"sender","type":"address","internalType":"address"},{"name":"tokenId","type":"uint256","internalType":"uint256"},{"name":"owner","type":"address","internalType":"address"}]},{"type":"error","name":"ERC721InsufficientApproval","inputs":[{"name":"operator","type":"address","internalType":"address"},{"name":"tokenId","type":"uint256","internalType":"uint256"}]},{"type":"error","name":"ERC721InvalidApprover","inputs":[{"name":"approver","type":"address","internalType":"address"}]},{"type":"error","name":"ERC721InvalidOperator","inputs":[{"name":"operator","type":"address","internalType":"address"}]},{"type":"error","name":"ERC721InvalidOwner","inputs":[{"name":"owner","type":"address","internalType":"address"}]},{"type":"error","name":"ERC721InvalidReceiver","inputs":[{"name":"receiver","type":"address","internalType":"address"}]},{"type":"error","name":"ERC721InvalidSender","inputs":[{"name":"sender","type":"address","internalType":"address"}]},{"type":"error","name":"ERC721NonexistentToken","inputs":[{"name":"tokenId","type":"uint256","internalType":"uint256"}]},{"type":"error","name":"InvalidChainId","inputs":[]}],"bytecode":{"object":"0x60a060405234801561000f575f80fd5b50604051618779380380618779833981810160405281019061003191906105ff565b6040518060400160405280600a81526020017f547769747465724e4654000000000000000000000000000000000000000000008152506040518060400160405280600481526020017f544e4654000000000000000000000000000000000000000000000000000000008152506100ab61018560201b60201c565b5f806101000a81548173ffffffffffffffffffffffffffffffffffffffff021916908373ffffffffffffffffffffffffffffffffffffffff1602179055503373ffffffffffffffffffffffffffffffffffffffff1660808173ffffffffffffffffffffffffffffffffffffffff1681525050816001908161012c9190610864565b50806002908161013c9190610864565b5050508060075f6101000a81548173ffffffffffffffffffffffffffffffffffffffff021916908373ffffffffffffffffffffffffffffffffffffffff16021790555050610b1a565b5f61019461032160201b60201c565b15610290575f30306040516101a890610587565b6101b3929190610942565b604051809103905ff0801580156101cc573d5f803e3d5ffd5b5090508073ffffffffffffffffffffffffffffffffffffffff166384cf84e17f9d85454a2280a17786dbf45112ca043599285b6fa793fc833b9423ccc222a2005f1b6040518263ffffffff1660e01b815260040161022a9190610981565b5f604051808303815f87803b158015610241575f80fd5b505af1158015610253573d5f803e3d5ffd5b505050508060405161026490610594565b61026e91906109ec565b604051809103905ff080158015610287573d5f803e3d5ffd5b5091505061031e565b61029e61034a60201b60201c565b156102bd575f6102b26103be60201b60201c565b90508091505061031e565b6102cb6103de60201b60201c565b156102ec575f6102df61044e60201b60201c565b925050508091505061031e565b6040517f7a47c9a200000000000000000000000000000000000000000000000000000000815260040160405180910390fd5b90565b5f6103306104aa60201b60201c565b8061034557506103446104c260201b60201c565b5b905090565b5f600146148061035a5750600a46145b806103655750608946145b80610371575061014446145b8061037d57506101e046145b8061038957506102eb46145b80610395575061210546145b806103a1575061a4b146145b806103ad575061a4ba46145b806103b9575061e70846145b905090565b5f8073b8be5bdcd6387332448f551cfe7684e50d9e108c90508091505090565b5f62aa36a74614806103f1575061012c46145b806103fd575061022146145b8061040957506112c146145b80610415575061e70546145b8061042257506201388246145b8061042f575062014a3446145b8061043c575062066eee46145b80610449575062aa37dc46145b905090565b5f805f8073ef2f0cbb90821e1c5c46ce5283c82f802f65a3f390505f73074fc67da733ffa5b288a9d5755552e61a1a0a0690505f737d441696a6f095b3cd5e144ccbcdb507e0ce124e9050828282955095509550505050909192565b5f617a694614806104bd57506204991946145b905090565b5f805f601e73f4e4fdca9d5d55e64525e314391996a15f7ec6006104e69190610a32565b73ffffffffffffffffffffffffffffffffffffffff1660405161050890610aa6565b5f60405180830381855afa9150503d805f8114610540576040519150601f19603f3d011682016040523d82523d5f602084013e610545565b606091505b509150915081158061055757505f8151145b15610566575f92505050610584565b5f8180602001905181019061057b9190610aef565b90508093505050505b90565b611fd0806140e283390190565b6126c7806160b283390190565b5f80fd5b5f73ffffffffffffffffffffffffffffffffffffffff82169050919050565b5f6105ce826105a5565b9050919050565b6105de816105c4565b81146105e8575f80fd5b50565b5f815190506105f9816105d5565b92915050565b5f60208284031215610614576106136105a1565b5b5f610621848285016105eb565b91505092915050565b5f81519050919050565b7f4e487b71000000000000000000000000000000000000000000000000000000005f52604160045260245ffd5b7f4e487b71000000000000000000000000000000000000000000000000000000005f52602260045260245ffd5b5f60028204905060018216806106a557607f821691505b6020821081036106b8576106b7610661565b5b50919050565b5f819050815f5260205f209050919050565b5f6020601f8301049050919050565b5f82821b905092915050565b5f6008830261071a7fffffffffffffffffffffffffffffffffffffffffffffffffffffffffffffffff826106df565b61072486836106df565b95508019841693508086168417925050509392505050565b5f819050919050565b5f819050919050565b5f61076861076361075e8461073c565b610745565b61073c565b9050919050565b5f819050919050565b6107818361074e565b61079561078d8261076f565b8484546106eb565b825550505050565b5f90565b6107a961079d565b6107b4818484610778565b505050565b5b818110156107d7576107cc5f826107a1565b6001810190506107ba565b5050565b601f82111561081c576107ed816106be565b6107f6846106d0565b81016020851015610805578190505b610819610811856106d0565b8301826107b9565b50505b505050565b5f82821c905092915050565b5f61083c5f1984600802610821565b1980831691505092915050565b5f610854838361082d565b9150826002028217905092915050565b61086d8261062a565b67ffffffffffffffff81111561088657610885610634565b5b610890825461068e565b61089b8282856107db565b5f60209050601f8311600181146108cc575f84156108ba578287015190505b6108c48582610849565b86555061092b565b601f1984166108da866106be565b5f5b82811015610901578489015182556001820191506020850194506020810190506108dc565b8683101561091e578489015161091a601f89168261082d565b8355505b6001600288020188555050505b505050505050565b61093c816105c4565b82525050565b5f6040820190506109555f830185610933565b6109626020830184610933565b9392505050565b5f819050919050565b61097b81610969565b82525050565b5f6020820190506109945f830184610972565b92915050565b5f6109b46109af6109aa846105a5565b610745565b6105a5565b9050919050565b5f6109c58261099a565b9050919050565b5f6109d6826109bb565b9050919050565b6109e6816109cc565b82525050565b5f6020820190506109ff5f8301846109dd565b92915050565b7f4e487b71000000000000000000000000000000000000000000000000000000005f52601160045260245ffd5b5f610a3c826105a5565b9150610a47836105a5565b9250828201905073ffffffffffffffffffffffffffffffffffffffff811115610a7357610a72610a05565b5b92915050565b5f81905092915050565b50565b5f610a915f83610a79565b9150610a9c82610a83565b5f82019050919050565b5f610ab082610a86565b9150819050919050565b5f8115159050919050565b610ace81610aba565b8114610ad8575f80fd5b50565b5f81519050610ae981610ac5565b92915050565b5f60208284031215610b0457610b036105a1565b5b5f610b1184828501610adb565b91505092915050565b6080516135b0610b325f395f61092b01526135b05ff3fe608060405234801561000f575f80fd5b5060043610610114575f3560e01c806370a08231116100a0578063a22cb4651161006f578063a22cb465146102dc578063b88d4fde146102f8578063c87b56dd14610314578063e985e9c514610344578063e9997c521461037457610114565b806370a082311461025657806372745ff61461028657806395d89b41146102a25780639b8b30c8146102c057610114565b806323b872dd116100e757806323b872dd146101b25780632b7ac3f3146101ce57806332a8f30f146101ec57806342842e0e1461020a5780636352211e1461022657610114565b806301ffc9a71461011857806306fdde0314610148578063081812fc14610166578063095ea7b314610196575b5f80fd5b610132600480360381019061012d9190611f48565b6103a4565b60405161013f9190611f8d565b60405180910390f35b610150610485565b60405161015d9190612016565b60405180910390f35b610180600480360381019061017b9190612069565b610515565b60405161018d91906120d3565b60405180910390f35b6101b060048036038101906101ab9190612116565b610530565b005b6101cc60048036038101906101c79190612154565b610546565b005b6101d6610645565b6040516101e391906121ff565b60405180910390f35b6101f4610668565b60405161020191906120d3565b60405180910390f35b610224600480360381019061021f9190612154565b61068d565b005b610240600480360381019061023b9190612069565b6106ac565b60405161024d91906120d3565b60405180910390f35b610270600480360381019061026b9190612218565b6106bd565b60405161027d9190612252565b60405180910390f35b6102a0600480360381019061029b91906123ba565b610773565b005b6102aa610899565b6040516102b79190612016565b60405180910390f35b6102da60048036038101906102d59190612464565b610929565b005b6102f660048036038101906102f191906124b9565b610b29565b005b610312600480360381019061030d9190612595565b610b3f565b005b61032e60048036038101906103299190612069565b610b5c565b60405161033b9190612016565b60405180910390f35b61035e60048036038101906103599190612615565b610bfd565b60405161036b9190611f8d565b60405180910390f35b61038e60048036038101906103899190612069565b610c8b565b60405161039b9190612016565b60405180910390f35b5f7f80ac58cd000000000000000000000000000000000000000000000000000000007bffffffffffffffffffffffffffffffffffffffffffffffffffffffff1916827bffffffffffffffffffffffffffffffffffffffffffffffffffffffff1916148061046e57507f5b5e139f000000000000000000000000000000000000000000000000000000007bffffffffffffffffffffffffffffffffffffffffffffffffffffffff1916827bffffffffffffffffffffffffffffffffffffffffffffffffffffffff1916145b8061047e575061047d82610d26565b5b9050919050565b60606001805461049490612680565b80601f01602080910402602001604051908101604052809291908181526020018280546104c090612680565b801561050b5780601f106104e25761010080835404028352916020019161050b565b820191905f5260205f20905b8154815290600101906020018083116104ee57829003601f168201915b5050505050905090565b5f61051f82610d8f565b5061052982610e15565b9050919050565b610542828261053d610e4e565b610e55565b5050565b5f73ffffffffffffffffffffffffffffffffffffffff168273ffffffffffffffffffffffffffffffffffffffff16036105b6575f6040517f64a0ae920000000000000000000000000000000000000000000000000000000081526004016105ad91906120d3565b60405180910390fd5b5f6105c983836105c4610e4e565b610e67565b90508373ffffffffffffffffffffffffffffffffffffffff168173ffffffffffffffffffffffffffffffffffffffff161461063f578382826040517f64283d7b000000000000000000000000000000000000000000000000000000008152600401610636939291906126b0565b60405180910390fd5b50505050565b5f8054906101000a900473ffffffffffffffffffffffffffffffffffffffff1681565b60075f9054906101000a900473ffffffffffffffffffffffffffffffffffffffff1681565b6106a783838360405180602001604052805f815250610b3f565b505050565b5f6106b682610d8f565b9050919050565b5f8073ffffffffffffffffffffffffffffffffffffffff168273ffffffffffffffffffffffffffffffffffffffff160361072e575f6040517f89c62b6400000000000000000000000000000000000000000000000000000000815260040161072591906120d3565b60405180910390fd5b60045f8373ffffffffffffffffffffffffffffffffffffffff1673ffffffffffffffffffffffffffffffffffffffff1681526020019081526020015f20549050919050565b60075f9054906101000a900473ffffffffffffffffffffffffffffffffffffffff1663c822d5ef60e01b6107a78282611072565b5f846040516020016107b9919061271f565b604051602081830303815290604052805190602001205f1c90505f73ffffffffffffffffffffffffffffffffffffffff166107f382611110565b73ffffffffffffffffffffffffffffffffffffffff1614610849576040517f08c379a0000000000000000000000000000000000000000000000000000000008152600401610840906127a5565b60405180910390fd5b6108538482611149565b846040516020016108649190612833565b60405160208183030381529060405260085f8381526020019081526020015f20908161089091906129e8565b50505050505050565b6060600280546108a890612680565b80601f01602080910402602001604051908101604052809291908181526020018280546108d490612680565b801561091f5780601f106108f65761010080835404028352916020019161091f565b820191905f5260205f20905b81548152906001019060200180831161090257829003601f168201915b5050505050905090565b7f000000000000000000000000000000000000000000000000000000000000000073ffffffffffffffffffffffffffffffffffffffff163373ffffffffffffffffffffffffffffffffffffffff16146109b7576040517f08c379a00000000000000000000000000000000000000000000000000000000081526004016109ae90612b27565b60405180910390fd5b6109bf611166565b806109ce57506109cd611183565b5b610a0d576040517f08c379a0000000000000000000000000000000000000000000000000000000008152600401610a0490612bb5565b60405180910390fd5b5f73ffffffffffffffffffffffffffffffffffffffff168173ffffffffffffffffffffffffffffffffffffffff16633fd66f226040518163ffffffff1660e01b8152600401602060405180830381865afa158015610a6d573d5f803e3d5ffd5b505050506040513d601f19601f82011682018060405250810190610a919190612c0e565b73ffffffffffffffffffffffffffffffffffffffff1603610ae7576040517f08c379a0000000000000000000000000000000000000000000000000000000008152600401610ade90612ca9565b60405180910390fd5b805f806101000a81548173ffffffffffffffffffffffffffffffffffffffff021916908373ffffffffffffffffffffffffffffffffffffffff16021790555050565b610b3b610b34610e4e565b83836111f3565b5050565b610b4a848484610546565b610b568484848461135c565b50505050565b606060085f8381526020019081526020015f208054610b7a90612680565b80601f0160208091040260200160405190810160405280929190818152602001828054610ba690612680565b8015610bf15780601f10610bc857610100808354040283529160200191610bf1565b820191905f5260205f20905b815481529060010190602001808311610bd457829003601f168201915b50505050509050919050565b5f60065f8473ffffffffffffffffffffffffffffffffffffffff1673ffffffffffffffffffffffffffffffffffffffff1681526020019081526020015f205f8373ffffffffffffffffffffffffffffffffffffffff1673ffffffffffffffffffffffffffffffffffffffff1681526020019081526020015f205f9054906101000a900460ff16905092915050565b6008602052805f5260405f205f915090508054610ca790612680565b80601f0160208091040260200160405190810160405280929190818152602001828054610cd390612680565b8015610d1e5780601f10610cf557610100808354040283529160200191610d1e565b820191905f5260205f20905b815481529060010190602001808311610d0157829003601f168201915b505050505081565b5f7f01ffc9a7000000000000000000000000000000000000000000000000000000007bffffffffffffffffffffffffffffffffffffffffffffffffffffffff1916827bffffffffffffffffffffffffffffffffffffffffffffffffffffffff1916149050919050565b5f80610d9a83611110565b90505f73ffffffffffffffffffffffffffffffffffffffff168173ffffffffffffffffffffffffffffffffffffffff1603610e0c57826040517f7e273289000000000000000000000000000000000000000000000000000000008152600401610e039190612252565b60405180910390fd5b80915050919050565b5f60055f8381526020019081526020015f205f9054906101000a900473ffffffffffffffffffffffffffffffffffffffff169050919050565b5f33905090565b610e62838383600161150e565b505050565b5f80610e7284611110565b90505f73ffffffffffffffffffffffffffffffffffffffff168373ffffffffffffffffffffffffffffffffffffffff1614610eb357610eb28184866116cd565b5b5f73ffffffffffffffffffffffffffffffffffffffff168173ffffffffffffffffffffffffffffffffffffffff1614610f3e57610ef25f855f8061150e565b600160045f8373ffffffffffffffffffffffffffffffffffffffff1673ffffffffffffffffffffffffffffffffffffffff1681526020019081526020015f205f82825403925050819055505b5f73ffffffffffffffffffffffffffffffffffffffff168573ffffffffffffffffffffffffffffffffffffffff1614610fbd57600160045f8773ffffffffffffffffffffffffffffffffffffffff1673ffffffffffffffffffffffffffffffffffffffff1681526020019081526020015f205f82825401925050819055505b8460035f8681526020019081526020015f205f6101000a81548173ffffffffffffffffffffffffffffffffffffffff021916908373ffffffffffffffffffffffffffffffffffffffff160217905550838573ffffffffffffffffffffffffffffffffffffffff168273ffffffffffffffffffffffffffffffffffffffff167fddf252ad1be2c89b69c2b068fc378daa952ba7f163c4a11628f55a4df523b3ef60405160405180910390a4809150509392505050565b5f8061107c611790565b915091505f8054906101000a900473ffffffffffffffffffffffffffffffffffffffff1673ffffffffffffffffffffffffffffffffffffffff1663c4fa74e5838387876040518563ffffffff1660e01b81526004016110de9493929190612f32565b5f6040518083038186803b1580156110f4575f80fd5b505afa158015611106573d5f803e3d5ffd5b5050505050505050565b5f60035f8381526020019081526020015f205f9054906101000a900473ffffffffffffffffffffffffffffffffffffffff169050919050565b611162828260405180602001604052805f815250611b10565b5050565b5f61116f611b2b565b8061117e575061117d611b43565b5b905090565b5f62aa36a7461480611196575061012c46145b806111a2575061022146145b806111ae57506112c146145b806111ba575061e70546145b806111c757506201388246145b806111d4575062014a3446145b806111e1575062066eee46145b806111ee575062aa37dc46145b905090565b5f73ffffffffffffffffffffffffffffffffffffffff168273ffffffffffffffffffffffffffffffffffffffff160361126357816040517f5b08ba1800000000000000000000000000000000000000000000000000000000815260040161125a91906120d3565b60405180910390fd5b8060065f8573ffffffffffffffffffffffffffffffffffffffff1673ffffffffffffffffffffffffffffffffffffffff1681526020019081526020015f205f8473ffffffffffffffffffffffffffffffffffffffff1673ffffffffffffffffffffffffffffffffffffffff1681526020019081526020015f205f6101000a81548160ff0219169083151502179055508173ffffffffffffffffffffffffffffffffffffffff168373ffffffffffffffffffffffffffffffffffffffff167f17307eab39ab6107e8899845ad3d59bd9653f200f220920489ca2b5937696c318360405161134f9190611f8d565b60405180910390a3505050565b5f8373ffffffffffffffffffffffffffffffffffffffff163b1115611508578273ffffffffffffffffffffffffffffffffffffffff1663150b7a0261139f610e4e565b8685856040518563ffffffff1660e01b81526004016113c19493929190612fcb565b6020604051808303815f875af19250505080156113fc57506040513d601f19601f820116820180604052508101906113f99190613029565b60015b61147d573d805f811461142a576040519150601f19603f3d011682016040523d82523d5f602084013e61142f565b606091505b505f81510361147557836040517f64a0ae9200000000000000000000000000000000000000000000000000000000815260040161146c91906120d3565b60405180910390fd5b805181602001fd5b63150b7a0260e01b7bffffffffffffffffffffffffffffffffffffffffffffffffffffffff1916817bffffffffffffffffffffffffffffffffffffffffffffffffffffffff19161461150657836040517f64a0ae920000000000000000000000000000000000000000000000000000000081526004016114fd91906120d3565b60405180910390fd5b505b50505050565b808061154657505f73ffffffffffffffffffffffffffffffffffffffff168273ffffffffffffffffffffffffffffffffffffffff1614155b15611678575f61155584610d8f565b90505f73ffffffffffffffffffffffffffffffffffffffff168373ffffffffffffffffffffffffffffffffffffffff16141580156115bf57508273ffffffffffffffffffffffffffffffffffffffff168173ffffffffffffffffffffffffffffffffffffffff1614155b80156115d257506115d08184610bfd565b155b1561161457826040517fa9fbf51f00000000000000000000000000000000000000000000000000000000815260040161160b91906120d3565b60405180910390fd5b811561167657838573ffffffffffffffffffffffffffffffffffffffff168273ffffffffffffffffffffffffffffffffffffffff167f8c5be1e5ebec7d5bd14f71427d1e84f3dd0314c0f7b2291e5b200ac8c7c3b92560405160405180910390a45b505b8360055f8581526020019081526020015f205f6101000a81548173ffffffffffffffffffffffffffffffffffffffff021916908373ffffffffffffffffffffffffffffffffffffffff16021790555050505050565b6116d8838383611c08565b61178b575f73ffffffffffffffffffffffffffffffffffffffff168373ffffffffffffffffffffffffffffffffffffffff160361174c57806040517f7e2732890000000000000000000000000000000000000000000000000000000081526004016117439190612252565b60405180910390fd5b81816040517f177e802f000000000000000000000000000000000000000000000000000000008152600401611782929190613054565b60405180910390fd5b505050565b611798611dd2565b5f805f3660049080926117ad93929190613083565b8101906117ba9190613325565b90505f60208060208060206117cf919061337e565b6117d9919061337e565b6117e3919061337e565b6117ed919061337e565b60208060206101006020611801919061337e565b61180b919061337e565b611815919061337e565b61181f919061337e565b600461182b919061337e565b611835919061337e565b90505f602080602080602061184a919061337e565b611854919061337e565b61185e919061337e565b611868919061337e565b602080602080602061187a919061337e565b611884919061337e565b61188e919061337e565b611898919061337e565b602080602061010060206118ac919061337e565b6118b6919061337e565b6118c0919061337e565b6118ca919061337e565b6118d4919061337e565b84604001516118e391906133b1565b6118ed91906133b1565b90505f81836118fc919061337e565b90505f803660208060206101006020611915919061337e565b61191f919061337e565b611929919061337e565b611933919061337e565b600461193f919061337e565b906020806020806020611952919061337e565b61195c919061337e565b611966919061337e565b611970919061337e565b60208060206101006020611984919061337e565b61198e919061337e565b611998919061337e565b6119a2919061337e565b60046119ae919061337e565b6119b8919061337e565b926119c593929190613083565b8080601f0160208091040260200160405190810160405280939291908181526020018383808284375f81840152601f19601f8201169050808301925050505050505090505f803686908592611a1c93929190613083565b8080601f0160208091040260200160405190810160405280939291908181526020018383808284375f81840152601f19601f8201169050808301925050505050505090505f82611a6a611cc8565b604051602001611a7a91906133e4565b60405160208183030381529060405283604051602001611a9c93929190613438565b60405160208183030381529060405290505f600282604051611abe9190613468565b602060405180830381855afa158015611ad9573d5f803e3d5ffd5b5050506040513d601f19601f82011682018060405250810190611afc9190613492565b905087819950995050505050505050509091565b611b1a8383611cdf565b611b265f84848461135c565b505050565b5f617a69461480611b3e57506204991946145b905090565b5f805f601e73f4e4fdca9d5d55e64525e314391996a15f7ec600611b6791906134bd565b73ffffffffffffffffffffffffffffffffffffffff16604051611b8990613527565b5f60405180830381855afa9150503d805f8114611bc1576040519150601f19603f3d011682016040523d82523d5f602084013e611bc6565b606091505b5091509150811580611bd857505f8151145b15611be7575f92505050611c05565b5f81806020019051810190611bfc919061354f565b90508093505050505b90565b5f8073ffffffffffffffffffffffffffffffffffffffff168373ffffffffffffffffffffffffffffffffffffffff1614158015611cbf57508273ffffffffffffffffffffffffffffffffffffffff168473ffffffffffffffffffffffffffffffffffffffff161480611c805750611c7f8484610bfd565b5b80611cbe57508273ffffffffffffffffffffffffffffffffffffffff16611ca683610e15565b73ffffffffffffffffffffffffffffffffffffffff16145b5b90509392505050565b611cd0611dd2565b611cd8611dd2565b8091505090565b5f73ffffffffffffffffffffffffffffffffffffffff168273ffffffffffffffffffffffffffffffffffffffff1603611d4f575f6040517f64a0ae92000000000000000000000000000000000000000000000000000000008152600401611d4691906120d3565b60405180910390fd5b5f611d5b83835f610e67565b90505f73ffffffffffffffffffffffffffffffffffffffff168173ffffffffffffffffffffffffffffffffffffffff1614611dcd575f6040517f73c6ac6e000000000000000000000000000000000000000000000000000000008152600401611dc491906120d3565b60405180910390fd5b505050565b6040518060800160405280611de5611e07565b81526020015f80191681526020015f8152602001611e01611e5d565b81525090565b60405180606001604052805f7bffffffffffffffffffffffffffffffffffffffffffffffffffffffff19168152602001611e3f611ebf565b81526020015f6001811115611e5757611e56612d84565b5b81525090565b6040518060a001604052805f73ffffffffffffffffffffffffffffffffffffffff1681526020015f7bffffffffffffffffffffffffffffffffffffffffffffffffffffffff191681526020015f81526020015f81526020015f80191681525090565b604051806101000160405280600890602082028036833780820191505090505090565b5f604051905090565b5f80fd5b5f80fd5b5f7fffffffff0000000000000000000000000000000000000000000000000000000082169050919050565b611f2781611ef3565b8114611f31575f80fd5b50565b5f81359050611f4281611f1e565b92915050565b5f60208284031215611f5d57611f5c611eeb565b5b5f611f6a84828501611f34565b91505092915050565b5f8115159050919050565b611f8781611f73565b82525050565b5f602082019050611fa05f830184611f7e565b92915050565b5f81519050919050565b5f82825260208201905092915050565b8281835e5f83830152505050565b5f601f19601f8301169050919050565b5f611fe882611fa6565b611ff28185611fb0565b9350612002818560208601611fc0565b61200b81611fce565b840191505092915050565b5f6020820190508181035f83015261202e8184611fde565b905092915050565b5f819050919050565b61204881612036565b8114612052575f80fd5b50565b5f813590506120638161203f565b92915050565b5f6020828403121561207e5761207d611eeb565b5b5f61208b84828501612055565b91505092915050565b5f73ffffffffffffffffffffffffffffffffffffffff82169050919050565b5f6120bd82612094565b9050919050565b6120cd816120b3565b82525050565b5f6020820190506120e65f8301846120c4565b92915050565b6120f5816120b3565b81146120ff575f80fd5b50565b5f81359050612110816120ec565b92915050565b5f806040838503121561212c5761212b611eeb565b5b5f61213985828601612102565b925050602061214a85828601612055565b9150509250929050565b5f805f6060848603121561216b5761216a611eeb565b5b5f61217886828701612102565b935050602061218986828701612102565b925050604061219a86828701612055565b9150509250925092565b5f819050919050565b5f6121c76121c26121bd84612094565b6121a4565b612094565b9050919050565b5f6121d8826121ad565b9050919050565b5f6121e9826121ce565b9050919050565b6121f9816121df565b82525050565b5f6020820190506122125f8301846121f0565b92915050565b5f6020828403121561222d5761222c611eeb565b5b5f61223a84828501612102565b91505092915050565b61224c81612036565b82525050565b5f6020820190506122655f830184612243565b92915050565b5f80fd5b5f61022082840312156122855761228461226b565b5b81905092915050565b5f80fd5b5f80fd5b7f4e487b71000000000000000000000000000000000000000000000000000000005f52604160045260245ffd5b6122cc82611fce565b810181811067ffffffffffffffff821117156122eb576122ea612296565b5b80604052505050565b5f6122fd611ee2565b905061230982826122c3565b919050565b5f67ffffffffffffffff82111561232857612327612296565b5b61233182611fce565b9050602081019050919050565b828183375f83830152505050565b5f61235e6123598461230e565b6122f4565b90508281526020810184848401111561237a57612379612292565b5b61238584828561233e565b509392505050565b5f82601f8301126123a1576123a061228e565b5b81356123b184826020860161234c565b91505092915050565b5f805f61026084860312156123d2576123d1611eeb565b5b5f6123df8682870161226f565b93505061022084013567ffffffffffffffff81111561240157612400611eef565b5b61240d8682870161238d565b92505061024061241f86828701612102565b9150509250925092565b5f612433826120b3565b9050919050565b61244381612429565b811461244d575f80fd5b50565b5f8135905061245e8161243a565b92915050565b5f6020828403121561247957612478611eeb565b5b5f61248684828501612450565b91505092915050565b61249881611f73565b81146124a2575f80fd5b50565b5f813590506124b38161248f565b92915050565b5f80604083850312156124cf576124ce611eeb565b5b5f6124dc85828601612102565b92505060206124ed858286016124a5565b9150509250929050565b5f67ffffffffffffffff82111561251157612510612296565b5b61251a82611fce565b9050602081019050919050565b5f612539612534846124f7565b6122f4565b90508281526020810184848401111561255557612554612292565b5b61256084828561233e565b509392505050565b5f82601f83011261257c5761257b61228e565b5b813561258c848260208601612527565b91505092915050565b5f805f80608085870312156125ad576125ac611eeb565b5b5f6125ba87828801612102565b94505060206125cb87828801612102565b93505060406125dc87828801612055565b925050606085013567ffffffffffffffff8111156125fd576125fc611eef565b5b61260987828801612568565b91505092959194509250565b5f806040838503121561262b5761262a611eeb565b5b5f61263885828601612102565b925050602061264985828601612102565b9150509250929050565b7f4e487b71000000000000000000000000000000000000000000000000000000005f52602260045260245ffd5b5f600282049050600182168061269757607f821691505b6020821081036126aa576126a9612653565b5b50919050565b5f6060820190506126c35f8301866120c4565b6126d06020830185612243565b6126dd60408301846120c4565b949350505050565b5f81905092915050565b5f6126f982611fa6565b61270381856126e5565b9350612713818560208601611fc0565b80840191505092915050565b5f61272a82846126ef565b915081905092915050565b7f557365722068617320616c7265616479206d696e7465642061205477697474655f8201527f724e465400000000000000000000000000000000000000000000000000000000602082015250565b5f61278f602483611fb0565b915061279a82612735565b604082019050919050565b5f6020820190508181035f8301526127bc81612783565b9050919050565b7f68747470733a2f2f6661756365742e766c617965722e78797a2f6170692f78425f8201527f616467654d6574613f68616e646c653d00000000000000000000000000000000602082015250565b5f61281d6030836126e5565b9150612828826127c3565b603082019050919050565b5f61283d82612811565b915061284982846126ef565b915081905092915050565b5f819050815f5260205f209050919050565b5f6020601f8301049050919050565b5f82821b905092915050565b5f600883026128b07fffffffffffffffffffffffffffffffffffffffffffffffffffffffffffffffff82612875565b6128ba8683612875565b95508019841693508086168417925050509392505050565b5f6128ec6128e76128e284612036565b6121a4565b612036565b9050919050565b5f819050919050565b612905836128d2565b612919612911826128f3565b848454612881565b825550505050565b5f90565b61292d612921565b6129388184846128fc565b505050565b5b8181101561295b576129505f82612925565b60018101905061293e565b5050565b601f8211156129a05761297181612854565b61297a84612866565b81016020851015612989578190505b61299d61299585612866565b83018261293d565b50505b505050565b5f82821c905092915050565b5f6129c05f19846008026129a5565b1980831691505092915050565b5f6129d883836129b1565b9150826002028217905092915050565b6129f182611fa6565b67ffffffffffffffff811115612a0a57612a09612296565b5b612a148254612680565b612a1f82828561295f565b5f60209050601f831160018114612a50575f8415612a3e578287015190505b612a4885826129cd565b865550612aaf565b601f198416612a5e86612854565b5f5b82811015612a8557848901518255600182019150602085019450602081019050612a60565b86831015612aa25784890151612a9e601f8916826129b1565b8355505b6001600288020188555050505b505050505050565b7f4f6e6c79206465706c6f7965722063616e206368616e676520766572696669655f8201527f7200000000000000000000000000000000000000000000000000000000000000602082015250565b5f612b11602183611fb0565b9150612b1c82612ab7565b604082019050919050565b5f6020820190508181035f830152612b3e81612b05565b9050919050565b7f4368616e67696e6720766572696669657273206973206f6e6c7920616c6c6f775f8201527f6564206f6e206465766e6574206f7220746573746e6574000000000000000000602082015250565b5f612b9f603783611fb0565b9150612baa82612b45565b604082019050919050565b5f6020820190508181035f830152612bcc81612b93565b9050919050565b5f612bdd826120b3565b9050919050565b612bed81612bd3565b8114612bf7575f80fd5b50565b5f81519050612c0881612be4565b92915050565b5f60208284031215612c2357612c22611eeb565b5b5f612c3084828501612bfa565b91505092915050565b7f56657269666965722773207265706f7369746f727920616464726573732069735f8201527f206e6f7420736574000000000000000000000000000000000000000000000000602082015250565b5f612c93602883611fb0565b9150612c9e82612c39565b604082019050919050565b5f6020820190508181035f830152612cc081612c87565b9050919050565b612cd081611ef3565b82525050565b5f60089050919050565b5f81905092915050565b5f819050919050565b5f819050919050565b612d0581612cf3565b82525050565b5f612d168383612cfc565b60208301905092915050565b5f602082019050919050565b612d3781612cd6565b612d418184612ce0565b9250612d4c82612cea565b805f5b83811015612d7c578151612d638782612d0b565b9650612d6e83612d22565b925050600181019050612d4f565b505050505050565b7f4e487b71000000000000000000000000000000000000000000000000000000005f52602160045260245ffd5b60028110612dc257612dc1612d84565b5b50565b5f819050612dd282612db1565b919050565b5f612de182612dc5565b9050919050565b612df181612dd7565b82525050565b61014082015f820151612e0c5f850182612cc7565b506020820151612e1f6020850182612d2e565b506040820151612e33610120850182612de8565b50505050565b612e4281612036565b82525050565b612e51816120b3565b82525050565b60a082015f820151612e6b5f850182612e48565b506020820151612e7e6020850182612cc7565b506040820151612e916040850182612e39565b506060820151612ea46060850182612e39565b506080820151612eb76080850182612cfc565b50505050565b61022082015f820151612ed25f850182612df7565b506020820151612ee6610140850182612cfc565b506040820151612efa610160850182612e39565b506060820151612f0e610180850182612e57565b50505050565b612f1d81612cf3565b82525050565b612f2c81611ef3565b82525050565b5f61028082019050612f465f830187612ebd565b612f54610220830186612f14565b612f626102408301856120c4565b612f70610260830184612f23565b95945050505050565b5f81519050919050565b5f82825260208201905092915050565b5f612f9d82612f79565b612fa78185612f83565b9350612fb7818560208601611fc0565b612fc081611fce565b840191505092915050565b5f608082019050612fde5f8301876120c4565b612feb60208301866120c4565b612ff86040830185612243565b818103606083015261300a8184612f93565b905095945050505050565b5f8151905061302381611f1e565b92915050565b5f6020828403121561303e5761303d611eeb565b5b5f61304b84828501613015565b91505092915050565b5f6040820190506130675f8301856120c4565b6130746020830184612243565b9392505050565b5f80fd5b5f80fd5b5f80858511156130965761309561307b565b5b838611156130a7576130a661307f565b5b6001850283019150848603905094509492505050565b5f80fd5b5f67ffffffffffffffff8211156130db576130da612296565b5b602082029050919050565b5f80fd5b6130f381612cf3565b81146130fd575f80fd5b50565b5f8135905061310e816130ea565b92915050565b5f613126613121846130c1565b6122f4565b905080602084028301858111156131405761313f6130e6565b5b835b8181101561316957806131558882613100565b845260208401935050602081019050613142565b5050509392505050565b5f82601f8301126131875761318661228e565b5b6008613194848285613114565b91505092915050565b600281106131a9575f80fd5b50565b5f813590506131ba8161319d565b92915050565b5f61014082840312156131d6576131d56130bd565b5b6131e060606122f4565b90505f6131ef84828501611f34565b5f83015250602061320284828501613173565b602083015250610120613217848285016131ac565b60408301525092915050565b5f60a08284031215613238576132376130bd565b5b61324260a06122f4565b90505f61325184828501612102565b5f83015250602061326484828501611f34565b602083015250604061327884828501612055565b604083015250606061328c84828501612055565b60608301525060806132a084828501613100565b60808301525092915050565b5f61022082840312156132c2576132c16130bd565b5b6132cc60806122f4565b90505f6132db848285016131c0565b5f830152506101406132ef84828501613100565b60208301525061016061330484828501612055565b60408301525061018061331984828501613223565b60608301525092915050565b5f610220828403121561333b5761333a611eeb565b5b5f613348848285016132ac565b91505092915050565b7f4e487b71000000000000000000000000000000000000000000000000000000005f52601160045260245ffd5b5f61338882612036565b915061339383612036565b92508282019050808211156133ab576133aa613351565b5b92915050565b5f6133bb82612036565b91506133c683612036565b92508282039050818111156133de576133dd613351565b5b92915050565b5f610220820190506133f85f830184612ebd565b92915050565b5f81905092915050565b5f61341282612f79565b61341c81856133fe565b935061342c818560208601611fc0565b80840191505092915050565b5f6134438286613408565b915061344f8285613408565b915061345b8284613408565b9150819050949350505050565b5f6134738284613408565b915081905092915050565b5f8151905061348c816130ea565b92915050565b5f602082840312156134a7576134a6611eeb565b5b5f6134b48482850161347e565b91505092915050565b5f6134c782612094565b91506134d283612094565b9250828201905073ffffffffffffffffffffffffffffffffffffffff8111156134fe576134fd613351565b5b92915050565b50565b5f6135125f836133fe565b915061351d82613504565b5f82019050919050565b5f61353182613507565b9150819050919050565b5f815190506135498161248f565b92915050565b5f6020828403121561356457613563611eeb565b5b5f6135718482850161353b565b9150509291505056fea264697066735822122059fd525ffded97fd3d2de66386f6b88f18cb5f5522d71f6a0a21da5c265c6eb664736f6c634300081a0033608060405234801561000f575f80fd5b50604051611fd0380380611fd083398181016040528101906100319190610342565b6100435f801b8361007c60201b60201c565b506100747fb19546dff01e856fb3f010c267a7b1c60363cf8a4664e21cc89c26224620214e8261007c60201b60201c565b505050610380565b5f8061008e84846100c560201b60201c565b905080156100bb576100b98360015f8781526020019081526020015f206101ba60201b90919060201c565b505b8091505092915050565b5f6100d683836101ed60201b60201c565b6101b05760015f808581526020019081526020015f205f015f8473ffffffffffffffffffffffffffffffffffffffff1673ffffffffffffffffffffffffffffffffffffffff1681526020019081526020015f205f6101000a81548160ff02191690831515021790555061014d61025060201b60201c565b73ffffffffffffffffffffffffffffffffffffffff168273ffffffffffffffffffffffffffffffffffffffff16847f2f8788117e7eff1d82e926ec794901d17c78024a50270940304540a733656f0d60405160405180910390a4600190506101b4565b5f90505b92915050565b5f6101e5835f018373ffffffffffffffffffffffffffffffffffffffff165f1b61025760201b60201c565b905092915050565b5f805f8481526020019081526020015f205f015f8373ffffffffffffffffffffffffffffffffffffffff1673ffffffffffffffffffffffffffffffffffffffff1681526020019081526020015f205f9054906101000a900460ff16905092915050565b5f33905090565b5f61026883836102c460201b60201c565b6102ba57825f0182908060018154018082558091505060019003905f5260205f20015f9091909190915055825f0180549050836001015f8481526020019081526020015f2081905550600190506102be565b5f90505b92915050565b5f80836001015f8481526020019081526020015f20541415905092915050565b5f80fd5b5f73ffffffffffffffffffffffffffffffffffffffff82169050919050565b5f610311826102e8565b9050919050565b61032181610307565b811461032b575f80fd5b50565b5f8151905061033c81610318565b92915050565b5f8060408385031215610358576103576102e4565b5b5f6103658582860161032e565b92505060206103768582860161032e565b9150509250929050565b611c438061038d5f395ff3fe608060405234801561000f575f80fd5b5060043610610135575f3560e01c8063853b5d19116100b6578063c5df91b51161007a578063c5df91b51461036b578063ca0d535814610387578063ca15c873146103a3578063d547741f146103d3578063e58378bb146103ef578063f2fde38b1461040d57610135565b8063853b5d19146102b55780639010d07c146102d157806391d1485414610301578063a217fddf14610331578063ada8f9191461034f57610135565b80632f2ff15d116100fd5780632f2ff15d1461021557806336568abe14610231578063755e936f1461024d57806381e4c9a31461026957806384cf84e11461029957610135565b806301ffc9a7146101395780631af6c43114610169578063248a9ca3146101995780632505a3bd146101c95780632ad82eea146101f9575b5f80fd5b610153600480360381019061014e91906113a4565b610429565b60405161016091906113e9565b60405180910390f35b610183600480360381019061017e9190611435565b6104a2565b60405161019091906113e9565b60405180910390f35b6101b360048036038101906101ae9190611435565b6104c8565b6040516101c0919061146f565b60405180910390f35b6101e360048036038101906101de91906115c4565b6104e4565b6040516101f091906113e9565b60405180910390f35b610213600480360381019061020e91906115c4565b610511565b005b61022f600480360381019061022a9190611665565b610620565b005b61024b60048036038101906102469190611665565b610642565b005b61026760048036038101906102629190611741565b6106bd565b005b610283600480360381019061027e9190611741565b6107ca565b60405161029091906113e9565b60405180910390f35b6102b360048036038101906102ae9190611435565b6107f7565b005b6102cf60048036038101906102ca9190611741565b6108ce565b005b6102eb60048036038101906102e691906117bb565b6109dd565b6040516102f89190611808565b60405180910390f35b61031b60048036038101906103169190611665565b610a09565b60405161032891906113e9565b60405180910390f35b610339610a6c565b604051610346919061146f565b60405180910390f35b61036960048036038101906103649190611821565b610a72565b005b61038560048036038101906103809190611435565b610a8d565b005b6103a1600480360381019061039c91906115c4565b610b62565b005b6103bd60048036038101906103b89190611435565b610c6f565b6040516103ca919061185b565b60405180910390f35b6103ed60048036038101906103e89190611665565b610c90565b005b6103f7610cb2565b604051610404919061146f565b60405180910390f35b61042760048036038101906104229190611821565b610cd6565b005b5f7f5a05180f000000000000000000000000000000000000000000000000000000007bffffffffffffffffffffffffffffffffffffffffffffffffffffffff1916827bffffffffffffffffffffffffffffffffffffffffffffffffffffffff1916148061049b575061049a82610d5b565b5b9050919050565b5f60035f8381526020019081526020015f205f9054906101000a900460ff169050919050565b5f805f8381526020019081526020015f20600101549050919050565b5f60045f838051906020012081526020019081526020015f205f9054906101000a900460ff169050919050565b7fb19546dff01e856fb3f010c267a7b1c60363cf8a4664e21cc89c26224620214e61053b81610dd4565b5f8280519060200120905060045f8281526020019081526020015f205f9054906101000a900460ff16156105a4576040517f08c379a000000000000000000000000000000000000000000000000000000000815260040161059b906118ce565b60405180910390fd5b600160045f8381526020019081526020015f205f6101000a81548160ff0219169083151502179055503373ffffffffffffffffffffffffffffffffffffffff167fcbfa55581c230aeb174d969838d927cdd297755dfb967a33134312f1377ee71d84604051610613919061193c565b60405180910390a2505050565b610629826104c8565b61063281610dd4565b61063c8383610de8565b50505050565b61064a610e2b565b73ffffffffffffffffffffffffffffffffffffffff168173ffffffffffffffffffffffffffffffffffffffff16146106ae576040517f6697b23200000000000000000000000000000000000000000000000000000000815260040160405180910390fd5b6106b88282610e32565b505050565b7fb19546dff01e856fb3f010c267a7b1c60363cf8a4664e21cc89c26224620214e6106e781610dd4565b5f8280519060200120905060025f8281526020019081526020015f205f9054906101000a900460ff1661074f576040517f08c379a0000000000000000000000000000000000000000000000000000000008152600401610746906119a6565b60405180910390fd5b5f60025f8381526020019081526020015f205f6101000a81548160ff0219169083151502179055503373ffffffffffffffffffffffffffffffffffffffff167f66e43f8252a3257fe010a4fd6ae50f57624762cc64a6eceadb04b18cfdefac7d846040516107bd9190611a16565b60405180910390a2505050565b5f60025f838051906020012081526020019081526020015f205f9054906101000a900460ff169050919050565b7fb19546dff01e856fb3f010c267a7b1c60363cf8a4664e21cc89c26224620214e61082181610dd4565b61082a826104a2565b1561086a576040517f08c379a000000000000000000000000000000000000000000000000000000000815260040161086190611a80565b60405180910390fd5b600160035f8481526020019081526020015f205f6101000a81548160ff0219169083151502179055507f010120d82c0c66b257c0ea628d405b1d3c2d37bb8dd9141f6c5c12cb0375c572826040516108c2919061146f565b60405180910390a15050565b7fb19546dff01e856fb3f010c267a7b1c60363cf8a4664e21cc89c26224620214e6108f881610dd4565b5f8280519060200120905060025f8281526020019081526020015f205f9054906101000a900460ff1615610961576040517f08c379a0000000000000000000000000000000000000000000000000000000008152600401610958906118ce565b60405180910390fd5b600160025f8381526020019081526020015f205f6101000a81548160ff0219169083151502179055503373ffffffffffffffffffffffffffffffffffffffff167f0a249d4766726d36cb6d6ac22cf998dc9fc02bb4ff9fda73ec1e3061c8a1db09846040516109d09190611a16565b60405180910390a2505050565b5f610a018260015f8681526020019081526020015f20610e7590919063ffffffff16565b905092915050565b5f805f8481526020019081526020015f205f015f8373ffffffffffffffffffffffffffffffffffffffff1673ffffffffffffffffffffffffffffffffffffffff1681526020019081526020015f205f9054906101000a900460ff16905092915050565b5f801b81565b610a7e5f801b82610620565b610a8a5f801b33610642565b50565b7fb19546dff01e856fb3f010c267a7b1c60363cf8a4664e21cc89c26224620214e610ab781610dd4565b610ac0826104a2565b610aff576040517f08c379a0000000000000000000000000000000000000000000000000000000008152600401610af690611b0e565b60405180910390fd5b5f60035f8481526020019081526020015f205f6101000a81548160ff0219169083151502179055507f4072861add20da436ef0a8274b90d102aea17b603f972cc8196d51f1a5d5617982604051610b56919061146f565b60405180910390a15050565b7fb19546dff01e856fb3f010c267a7b1c60363cf8a4664e21cc89c26224620214e610b8c81610dd4565b5f8280519060200120905060045f8281526020019081526020015f205f9054906101000a900460ff16610bf4576040517f08c379a0000000000000000000000000000000000000000000000000000000008152600401610beb906119a6565b60405180910390fd5b5f60045f8381526020019081526020015f205f6101000a81548160ff0219169083151502179055503373ffffffffffffffffffffffffffffffffffffffff167f69c40cdda8ad6e074bf320a4a76804a6652eb5231bda91b690dcb98010b2707984604051610c62919061193c565b60405180910390a2505050565b5f610c8960015f8481526020019081526020015f20610e8c565b9050919050565b610c99826104c8565b610ca281610dd4565b610cac8383610e32565b50505050565b7fb19546dff01e856fb3f010c267a7b1c60363cf8a4664e21cc89c26224620214e81565b5f610d017fb19546dff01e856fb3f010c267a7b1c60363cf8a4664e21cc89c26224620214e5f6109dd565b9050610d2d7fb19546dff01e856fb3f010c267a7b1c60363cf8a4664e21cc89c26224620214e82610c90565b610d577fb19546dff01e856fb3f010c267a7b1c60363cf8a4664e21cc89c26224620214e83610620565b5050565b5f7f7965db0b000000000000000000000000000000000000000000000000000000007bffffffffffffffffffffffffffffffffffffffffffffffffffffffff1916827bffffffffffffffffffffffffffffffffffffffffffffffffffffffff19161480610dcd5750610dcc82610e9f565b5b9050919050565b610de581610de0610e2b565b610f08565b50565b5f80610df48484610f59565b90508015610e2157610e1f8360015f8781526020019081526020015f2061104290919063ffffffff16565b505b8091505092915050565b5f33905090565b5f80610e3e848461106f565b90508015610e6b57610e698360015f8781526020019081526020015f2061115890919063ffffffff16565b505b8091505092915050565b5f610e82835f0183611185565b5f1c905092915050565b5f610e98825f016111ac565b9050919050565b5f7f01ffc9a7000000000000000000000000000000000000000000000000000000007bffffffffffffffffffffffffffffffffffffffffffffffffffffffff1916827bffffffffffffffffffffffffffffffffffffffffffffffffffffffff1916149050919050565b610f128282610a09565b610f555780826040517fe2517d3f000000000000000000000000000000000000000000000000000000008152600401610f4c929190611b2c565b60405180910390fd5b5050565b5f610f648383610a09565b6110385760015f808581526020019081526020015f205f015f8473ffffffffffffffffffffffffffffffffffffffff1673ffffffffffffffffffffffffffffffffffffffff1681526020019081526020015f205f6101000a81548160ff021916908315150217905550610fd5610e2b565b73ffffffffffffffffffffffffffffffffffffffff168273ffffffffffffffffffffffffffffffffffffffff16847f2f8788117e7eff1d82e926ec794901d17c78024a50270940304540a733656f0d60405160405180910390a46001905061103c565b5f90505b92915050565b5f611067835f018373ffffffffffffffffffffffffffffffffffffffff165f1b6111bb565b905092915050565b5f61107a8383610a09565b1561114e575f805f8581526020019081526020015f205f015f8473ffffffffffffffffffffffffffffffffffffffff1673ffffffffffffffffffffffffffffffffffffffff1681526020019081526020015f205f6101000a81548160ff0219169083151502179055506110eb610e2b565b73ffffffffffffffffffffffffffffffffffffffff168273ffffffffffffffffffffffffffffffffffffffff16847ff6391f5c32d9c69d2a47ea670b442974b53935d1edc7fd64eb21e047a839171b60405160405180910390a460019050611152565b5f90505b92915050565b5f61117d835f018373ffffffffffffffffffffffffffffffffffffffff165f1b611222565b905092915050565b5f825f01828154811061119b5761119a611b53565b5b905f5260205f200154905092915050565b5f815f01805490509050919050565b5f6111c6838361131e565b61121857825f0182908060018154018082558091505060019003905f5260205f20015f9091909190915055825f0180549050836001015f8481526020019081526020015f20819055506001905061121c565b5f90505b92915050565b5f80836001015f8481526020019081526020015f205490505f8114611313575f60018261124f9190611bad565b90505f6001865f01805490506112659190611bad565b90508082146112cb575f865f01828154811061128457611283611b53565b5b905f5260205f200154905080875f0184815481106112a5576112a4611b53565b5b905f5260205f20018190555083876001015f8381526020019081526020015f2081905550505b855f018054806112de576112dd611be0565b5b600190038181905f5260205f20015f90559055856001015f8681526020019081526020015f205f905560019350505050611318565b5f9150505b92915050565b5f80836001015f8481526020019081526020015f20541415905092915050565b5f604051905090565b5f80fd5b5f80fd5b5f7fffffffff0000000000000000000000000000000000000000000000000000000082169050919050565b6113838161134f565b811461138d575f80fd5b50565b5f8135905061139e8161137a565b92915050565b5f602082840312156113b9576113b8611347565b5b5f6113c684828501611390565b91505092915050565b5f8115159050919050565b6113e3816113cf565b82525050565b5f6020820190506113fc5f8301846113da565b92915050565b5f819050919050565b61141481611402565b811461141e575f80fd5b50565b5f8135905061142f8161140b565b92915050565b5f6020828403121561144a57611449611347565b5b5f61145784828501611421565b91505092915050565b61146981611402565b82525050565b5f6020820190506114825f830184611460565b92915050565b5f80fd5b5f80fd5b5f601f19601f8301169050919050565b7f4e487b71000000000000000000000000000000000000000000000000000000005f52604160045260245ffd5b6114d682611490565b810181811067ffffffffffffffff821117156114f5576114f46114a0565b5b80604052505050565b5f61150761133e565b905061151382826114cd565b919050565b5f67ffffffffffffffff821115611532576115316114a0565b5b61153b82611490565b9050602081019050919050565b828183375f83830152505050565b5f61156861156384611518565b6114fe565b9050828152602081018484840111156115845761158361148c565b5b61158f848285611548565b509392505050565b5f82601f8301126115ab576115aa611488565b5b81356115bb848260208601611556565b91505092915050565b5f602082840312156115d9576115d8611347565b5b5f82013567ffffffffffffffff8111156115f6576115f561134b565b5b61160284828501611597565b91505092915050565b5f73ffffffffffffffffffffffffffffffffffffffff82169050919050565b5f6116348261160b565b9050919050565b6116448161162a565b811461164e575f80fd5b50565b5f8135905061165f8161163b565b92915050565b5f806040838503121561167b5761167a611347565b5b5f61168885828601611421565b925050602061169985828601611651565b9150509250929050565b5f67ffffffffffffffff8211156116bd576116bc6114a0565b5b6116c682611490565b9050602081019050919050565b5f6116e56116e0846116a3565b6114fe565b9050828152602081018484840111156117015761170061148c565b5b61170c848285611548565b509392505050565b5f82601f83011261172857611727611488565b5b81356117388482602086016116d3565b91505092915050565b5f6020828403121561175657611755611347565b5b5f82013567ffffffffffffffff8111156117735761177261134b565b5b61177f84828501611714565b91505092915050565b5f819050919050565b61179a81611788565b81146117a4575f80fd5b50565b5f813590506117b581611791565b92915050565b5f80604083850312156117d1576117d0611347565b5b5f6117de85828601611421565b92505060206117ef858286016117a7565b9150509250929050565b6118028161162a565b82525050565b5f60208201905061181b5f8301846117f9565b92915050565b5f6020828403121561183657611835611347565b5b5f61184384828501611651565b91505092915050565b61185581611788565b82525050565b5f60208201905061186e5f83018461184c565b92915050565b5f82825260208201905092915050565b7f4b657920697320616c72656164792076616c69640000000000000000000000005f82015250565b5f6118b8601483611874565b91506118c382611884565b602082019050919050565b5f6020820190508181035f8301526118e5816118ac565b9050919050565b5f81519050919050565b8281835e5f83830152505050565b5f61190e826118ec565b6119188185611874565b93506119288185602086016118f6565b61193181611490565b840191505092915050565b5f6020820190508181035f8301526119548184611904565b905092915050565b7f43616e6e6f74207265766f6b6520696e76616c6964206b6579000000000000005f82015250565b5f611990601983611874565b915061199b8261195c565b602082019050919050565b5f6020820190508181035f8301526119bd81611984565b9050919050565b5f81519050919050565b5f82825260208201905092915050565b5f6119e8826119c4565b6119f281856119ce565b9350611a028185602086016118f6565b611a0b81611490565b840191505092915050565b5f6020820190508181035f830152611a2e81846119de565b905092915050565b7f496d616765494420697320616c726561647920737570706f72746564000000005f82015250565b5f611a6a601c83611874565b9150611a7582611a36565b602082019050919050565b5f6020820190508181035f830152611a9781611a5e565b9050919050565b7f43616e6e6f74207265766f6b6520756e737570706f7274656420496d616765495f8201527f4400000000000000000000000000000000000000000000000000000000000000602082015250565b5f611af8602183611874565b9150611b0382611a9e565b604082019050919050565b5f6020820190508181035f830152611b2581611aec565b9050919050565b5f604082019050611b3f5f8301856117f9565b611b4c6020830184611460565b9392505050565b7f4e487b71000000000000000000000000000000000000000000000000000000005f52603260045260245ffd5b7f4e487b71000000000000000000000000000000000000000000000000000000005f52601160045260245ffd5b5f611bb782611788565b9150611bc283611788565b9250828203905081811115611bda57611bd9611b80565b5b92915050565b7f4e487b71000000000000000000000000000000000000000000000000000000005f52603160045260245ffdfea26469706673582212207f69eae34321a0baa17b44793092815fcf79aec41f2354c213383bf557c39ba864736f6c634300081a003360e060405234801561000f575f80fd5b506040516126c73803806126c783398181016040528101906100319190610239565b808073ffffffffffffffffffffffffffffffffffffffff1660c08173ffffffffffffffffffffffffffffffffffffffff16815250505061007561014960201b60201c565b156100ac576040517f7a47c9a200000000000000000000000000000000000000000000000000000000815260040160405180910390fd5b63deafbeef60e01b6040516100c0906101bd565b6100ca919061029e565b604051809103905ff0801580156100e3573d5f803e3d5ffd5b5073ffffffffffffffffffffffffffffffffffffffff1660a08173ffffffffffffffffffffffffffffffffffffffff168152505060018081111561012a576101296102b7565b5b608081600181111561013f5761013e6102b7565b5b81525050506102e4565b5f60014614806101595750600a46145b806101645750608946145b80610170575061014446145b8061017c57506101e046145b8061018857506102eb46145b80610194575061210546145b806101a0575061a4b146145b806101ac575061a4ba46145b806101b8575061e70846145b905090565b61100a806116bd83390190565b5f80fd5b5f73ffffffffffffffffffffffffffffffffffffffff82169050919050565b5f6101f7826101ce565b9050919050565b5f610208826101ed565b9050919050565b610218816101fe565b8114610222575f80fd5b50565b5f815190506102338161020f565b92915050565b5f6020828403121561024e5761024d6101ca565b5b5f61025b84828501610225565b91505092915050565b5f7fffffffff0000000000000000000000000000000000000000000000000000000082169050919050565b61029881610264565b82525050565b5f6020820190506102b15f83018461028f565b92915050565b7f4e487b71000000000000000000000000000000000000000000000000000000005f52602160045260245ffd5b60805160a05160c0516113946103295f395f818161011401528181610240015261053401525f818160ef015261019201525f818161013a015261026401526113945ff3fe608060405234801561000f575f80fd5b5060043610610055575f3560e01c806308c84e70146100595780633fd66f22146100775780639a44ea8414610095578063c4fa74e5146100b3578063f4cbae94146100cf575b5f80fd5b6100616100ed565b60405161006e9190610747565b60405180910390f35b61007f610111565b60405161008c9190610780565b60405180910390f35b61009d610138565b6040516100aa919061080c565b60405180910390f35b6100cd60048036038101906100c89190610918565b61015c565b005b6100d761023e565b6040516100e49190610780565b60405180910390f35b7f000000000000000000000000000000000000000000000000000000000000000081565b5f7f0000000000000000000000000000000000000000000000000000000000000000905090565b7f000000000000000000000000000000000000000000000000000000000000000081565b610175848036038101906101709190610c7d565b610262565b610190848036038101906101899190610c7d565b83836102f6565b7f000000000000000000000000000000000000000000000000000000000000000073ffffffffffffffffffffffffffffffffffffffff1663ab750e756101e7865f018036038101906101e29190610ca9565b610612565b866101400135866040518463ffffffff1660e01b815260040161020c93929190610d44565b5f6040518083038186803b158015610222575f80fd5b505afa158015610234573d5f803e3d5ffd5b5050505050505050565b7f000000000000000000000000000000000000000000000000000000000000000081565b7f0000000000000000000000000000000000000000000000000000000000000000600181111561029557610294610799565b5b6102a1825f01516106c0565b60018111156102b3576102b2610799565b5b146102f3576040517f08c379a00000000000000000000000000000000000000000000000000000000081526004016102ea90610dda565b60405180910390fd5b50565b8173ffffffffffffffffffffffffffffffffffffffff1683606001515f015173ffffffffffffffffffffffffffffffffffffffff161461036b576040517f08c379a000000000000000000000000000000000000000000000000000000000815260040161036290610e42565b60405180910390fd5b807bffffffffffffffffffffffffffffffffffffffffffffffffffffffff19168360600151602001517bffffffffffffffffffffffffffffffffffffffffffffffffffffffff1916146103f3576040517f08c379a00000000000000000000000000000000000000000000000000000000081526004016103ea90610eaa565b60405180910390fd5b468360600151604001511461043d576040517f08c379a000000000000000000000000000000000000000000000000000000000815260040161043490610f12565b60405180910390fd5b4383606001516060015110610487576040517f08c379a000000000000000000000000000000000000000000000000000000000815260040161047e90610fa0565b60405180910390fd5b4361010084606001516060015161049e9190610feb565b10156104df576040517f08c379a00000000000000000000000000000000000000000000000000000000081526004016104d69061108e565b60405180910390fd5b8260600151606001514083606001516080015114610532576040517f08c379a0000000000000000000000000000000000000000000000000000000008152600401610529906110f6565b60405180910390fd5b7f000000000000000000000000000000000000000000000000000000000000000073ffffffffffffffffffffffffffffffffffffffff16631af6c43184602001516040518263ffffffff1660e01b815260040161058f9190611114565b602060405180830381865afa1580156105aa573d5f803e3d5ffd5b505050506040513d601f19601f820116820180604052508101906105ce9190611162565b61060d576040517f08c379a0000000000000000000000000000000000000000000000000000000008152600401610604906111d7565b60405180910390fd5b505050565b606060018081111561062757610626610799565b5b8260400151600181111561063e5761063d610799565b5b0361068f575f82602001515f6008811061065b5761065a6111f5565b5b60200201519050825f015181604051602001610678929190611262565b6040516020818303038152906040529150506106bb565b815f015182602001516040516020016106a9929190611332565b60405160208183030381529060405290505b919050565b5f81604001519050919050565b5f73ffffffffffffffffffffffffffffffffffffffff82169050919050565b5f819050919050565b5f61070f61070a610705846106cd565b6106ec565b6106cd565b9050919050565b5f610720826106f5565b9050919050565b5f61073182610716565b9050919050565b61074181610727565b82525050565b5f60208201905061075a5f830184610738565b92915050565b5f61076a82610716565b9050919050565b61077a81610760565b82525050565b5f6020820190506107935f830184610771565b92915050565b7f4e487b71000000000000000000000000000000000000000000000000000000005f52602160045260245ffd5b600281106107d7576107d6610799565b5b50565b5f8190506107e7826107c6565b919050565b5f6107f6826107da565b9050919050565b610806816107ec565b82525050565b5f60208201905061081f5f8301846107fd565b92915050565b5f604051905090565b5f80fd5b5f80fd5b5f610220828403121561084c5761084b610832565b5b81905092915050565b5f819050919050565b61086781610855565b8114610871575f80fd5b50565b5f813590506108828161085e565b92915050565b5f610892826106cd565b9050919050565b6108a281610888565b81146108ac575f80fd5b50565b5f813590506108bd81610899565b92915050565b5f7fffffffff0000000000000000000000000000000000000000000000000000000082169050919050565b6108f7816108c3565b8114610901575f80fd5b50565b5f81359050610912816108ee565b92915050565b5f805f8061028085870312156109315761093061082e565b5b5f61093e87828801610836565b94505061022061095087828801610874565b935050610240610962878288016108af565b92505061026061097487828801610904565b91505092959194509250565b5f80fd5b5f601f19601f8301169050919050565b7f4e487b71000000000000000000000000000000000000000000000000000000005f52604160045260245ffd5b6109ca82610984565b810181811067ffffffffffffffff821117156109e9576109e8610994565b5b80604052505050565b5f6109fb610825565b9050610a0782826109c1565b919050565b5f80fd5b5f67ffffffffffffffff821115610a2a57610a29610994565b5b602082029050919050565b5f80fd5b5f610a4b610a4684610a10565b6109f2565b90508060208402830185811115610a6557610a64610a35565b5b835b81811015610a8e5780610a7a8882610874565b845260208401935050602081019050610a67565b5050509392505050565b5f82601f830112610aac57610aab610a0c565b5b6008610ab9848285610a39565b91505092915050565b60028110610ace575f80fd5b50565b5f81359050610adf81610ac2565b92915050565b5f6101408284031215610afb57610afa610980565b5b610b0560606109f2565b90505f610b1484828501610904565b5f830152506020610b2784828501610a98565b602083015250610120610b3c84828501610ad1565b60408301525092915050565b5f819050919050565b610b5a81610b48565b8114610b64575f80fd5b50565b5f81359050610b7581610b51565b92915050565b5f60a08284031215610b9057610b8f610980565b5b610b9a60a06109f2565b90505f610ba9848285016108af565b5f830152506020610bbc84828501610904565b6020830152506040610bd084828501610b67565b6040830152506060610be484828501610b67565b6060830152506080610bf884828501610874565b60808301525092915050565b5f6102208284031215610c1a57610c19610980565b5b610c2460806109f2565b90505f610c3384828501610ae5565b5f83015250610140610c4784828501610874565b602083015250610160610c5c84828501610b67565b604083015250610180610c7184828501610b7b565b60608301525092915050565b5f6102208284031215610c9357610c9261082e565b5b5f610ca084828501610c04565b91505092915050565b5f6101408284031215610cbf57610cbe61082e565b5b5f610ccc84828501610ae5565b91505092915050565b5f81519050919050565b5f82825260208201905092915050565b8281835e5f83830152505050565b5f610d0782610cd5565b610d118185610cdf565b9350610d21818560208601610cef565b610d2a81610984565b840191505092915050565b610d3e81610855565b82525050565b5f6060820190508181035f830152610d5c8186610cfd565b9050610d6b6020830185610d35565b610d786040830184610d35565b949350505050565b5f82825260208201905092915050565b7f496e76616c69642070726f6f66206d6f646500000000000000000000000000005f82015250565b5f610dc4601283610d80565b9150610dcf82610d90565b602082019050919050565b5f6020820190508181035f830152610df181610db8565b9050919050565b7f496e76616c69642070726f7665720000000000000000000000000000000000005f82015250565b5f610e2c600e83610d80565b9150610e3782610df8565b602082019050919050565b5f6020820190508181035f830152610e5981610e20565b9050919050565b7f496e76616c69642073656c6563746f72000000000000000000000000000000005f82015250565b5f610e94601083610d80565b9150610e9f82610e60565b602082019050919050565b5f6020820190508181035f830152610ec181610e88565b9050919050565b7f496e76616c696420636861696e206964000000000000000000000000000000005f82015250565b5f610efc601083610d80565b9150610f0782610ec8565b602082019050919050565b5f6020820190508181035f830152610f2981610ef0565b9050919050565b7f496e76616c696420626c6f636b206e756d6265723a20626c6f636b2066726f6d5f8201527f2066757475726500000000000000000000000000000000000000000000000000602082015250565b5f610f8a602783610d80565b9150610f9582610f30565b604082019050919050565b5f6020820190508181035f830152610fb781610f7e565b9050919050565b7f4e487b71000000000000000000000000000000000000000000000000000000005f52601160045260245ffd5b5f610ff582610b48565b915061100083610b48565b925082820190508082111561101857611017610fbe565b5b92915050565b7f496e76616c696420626c6f636b206e756d6265723a20626c6f636b20746f6f205f8201527f6f6c640000000000000000000000000000000000000000000000000000000000602082015250565b5f611078602383610d80565b91506110838261101e565b604082019050919050565b5f6020820190508181035f8301526110a58161106c565b9050919050565b7f496e76616c696420626c6f636b206861736800000000000000000000000000005f82015250565b5f6110e0601283610d80565b91506110eb826110ac565b602082019050919050565b5f6020820190508181035f83015261110d816110d4565b9050919050565b5f6020820190506111275f830184610d35565b92915050565b5f8115159050919050565b6111418161112d565b811461114b575f80fd5b50565b5f8151905061115c81611138565b92915050565b5f602082840312156111775761117661082e565b5b5f6111848482850161114e565b91505092915050565b7f556e737570706f727465642043616c6c477565737449640000000000000000005f82015250565b5f6111c1601783610d80565b91506111cc8261118d565b602082019050919050565b5f6020820190508181035f8301526111ee816111b5565b9050919050565b7f4e487b71000000000000000000000000000000000000000000000000000000005f52603260045260245ffd5b5f819050919050565b61123c611237826108c3565b611222565b82525050565b5f819050919050565b61125c61125782610855565b611242565b82525050565b5f61126d828561122b565b60048201915061127d828461124b565b6020820191508190509392505050565b5f60089050919050565b5f81905092915050565b5f819050919050565b6112b381610855565b82525050565b5f6112c483836112aa565b60208301905092915050565b5f602082019050919050565b6112e58161128d565b6112ef8184611297565b92506112fa826112a1565b805f5b8381101561132a57815161131187826112b9565b965061131c836112d0565b9250506001810190506112fd565b505050505050565b5f61133d828561122b565b60048201915061134d82846112dc565b61010082019150819050939250505056fea2646970667358221220ff3008a709ebb4fc1153086116d0e6c6e62462c7d4585550bba1b6d15f77e3c464736f6c634300081a003360a060405234801561000f575f80fd5b5060405161100a38038061100a833981810160405281019061003191906100d6565b807bffffffffffffffffffffffffffffffffffffffffffffffffffffffff19166080817bffffffffffffffffffffffffffffffffffffffffffffffffffffffff19168152505050610101565b5f80fd5b5f7fffffffff0000000000000000000000000000000000000000000000000000000082169050919050565b6100b581610081565b81146100bf575f80fd5b50565b5f815190506100d0816100ac565b92915050565b5f602082840312156100eb576100ea61007d565b5b5f6100f8848285016100c2565b91505092915050565b608051610edc61012e5f395f8181610111015281816101670152818161024201526102a50152610edc5ff3fe608060405234801561000f575f80fd5b5060043610610055575f3560e01c8063053c238d146100595780631599ead5146100775780633a115bb11461009357806366cf0e4b146100c3578063ab750e75146100f3575b5f80fd5b61006161010f565b60405161006e91906106e1565b60405180910390f35b610091600480360381019061008c9190610724565b610133565b005b6100ad60048036038101906100a8919061079e565b610152565b6040516100ba9190610882565b60405180910390f35b6100dd60048036038101906100d891906108a2565b6101b7565b6040516100ea9190610882565b60405180910390f35b61010d60048036038101906101089190610941565b6101e1565b005b7f000000000000000000000000000000000000000000000000000000000000000081565b61014f81805f019061014591906109be565b8360200135610203565b50565b61015a610621565b60405180604001604052807f000000000000000000000000000000000000000000000000000000000000000084604051602001610198929190610a60565b6040516020818303038152906040528152602001838152509050919050565b6101bf610621565b6101d96101d46101cf858561038d565b61042f565b610152565b905092915050565b6101fd84846101f86101f3868661038d565b61042f565b610203565b50505050565b82825f9060049261021693929190610a93565b906102219190610ae3565b7bffffffffffffffffffffffffffffffffffffffffffffffffffffffff19167f00000000000000000000000000000000000000000000000000000000000000007bffffffffffffffffffffffffffffffffffffffffffffffffffffffff1916146103015782825f9060049261029893929190610a93565b906102a39190610ae3565b7f00000000000000000000000000000000000000000000000000000000000000006040517fb8b38d4c0000000000000000000000000000000000000000000000000000000081526004016102f8929190610b41565b60405180910390fd5b806040516020016103129190610b68565b604051602081830303815290604052805190602001208383600490809261033b93929190610a93565b604051610349929190610bbe565b604051809103902014610388576040517f439cc0cd00000000000000000000000000000000000000000000000000000000815260040160405180910390fd5b505050565b61039561063d565b6040518060a001604052808481526020017fa3acc27117418996340b84e5a90f3ef4c49d22c79e44aad822ec9c313e1eb8e25f1b815260200160405180604001604052805f60028111156103ec576103eb610bd6565b5b81526020015f60ff1681525081526020015f801b815260200161042460405180604001604052808681526020015f801b81525061054c565b815250905092915050565b5f60028060405161043f90610c4d565b602060405180830381855afa15801561045a573d5f803e3d5ffd5b5050506040513d601f19601f8201168201806040525081019061047d9190610c75565b8360600151845f015185602001518660800151601888604001515f015160028111156104ac576104ab610bd6565b5b63ffffffff16901b601889604001516020015160ff1663ffffffff16901b6008600461ffff16901b6040516020016104eb989796959493929190610d24565b6040516020818303038152906040526040516105079190610de5565b602060405180830381855afa158015610522573d5f803e3d5ffd5b5050506040513d601f19601f820116820180604052508101906105459190610c75565b9050919050565b5f60028060405161055c90610e45565b602060405180830381855afa158015610577573d5f803e3d5ffd5b5050506040513d601f19601f8201168201806040525081019061059a9190610c75565b835f015184602001516008600261ffff16901b6040516020016105c09493929190610e59565b6040516020818303038152906040526040516105dc9190610de5565b602060405180830381855afa1580156105f7573d5f803e3d5ffd5b5050506040513d601f19601f8201168201806040525081019061061a9190610c75565b9050919050565b6040518060400160405280606081526020015f80191681525090565b6040518060a001604052805f80191681526020015f801916815260200161066261067a565b81526020015f80191681526020015f80191681525090565b60405180604001604052805f600281111561069857610697610bd6565b5b81526020015f60ff1681525090565b5f7fffffffff0000000000000000000000000000000000000000000000000000000082169050919050565b6106db816106a7565b82525050565b5f6020820190506106f45f8301846106d2565b92915050565b5f80fd5b5f80fd5b5f80fd5b5f6040828403121561071b5761071a610702565b5b81905092915050565b5f60208284031215610739576107386106fa565b5b5f82013567ffffffffffffffff811115610756576107556106fe565b5b61076284828501610706565b91505092915050565b5f819050919050565b61077d8161076b565b8114610787575f80fd5b50565b5f8135905061079881610774565b92915050565b5f602082840312156107b3576107b26106fa565b5b5f6107c08482850161078a565b91505092915050565b5f81519050919050565b5f82825260208201905092915050565b8281835e5f83830152505050565b5f601f19601f8301169050919050565b5f61080b826107c9565b61081581856107d3565b93506108258185602086016107e3565b61082e816107f1565b840191505092915050565b6108428161076b565b82525050565b5f604083015f8301518482035f8601526108628282610801565b91505060208301516108776020860182610839565b508091505092915050565b5f6020820190508181035f83015261089a8184610848565b905092915050565b5f80604083850312156108b8576108b76106fa565b5b5f6108c58582860161078a565b92505060206108d68582860161078a565b9150509250929050565b5f80fd5b5f80fd5b5f80fd5b5f8083601f840112610901576109006108e0565b5b8235905067ffffffffffffffff81111561091e5761091d6108e4565b5b60208301915083600182028301111561093a576109396108e8565b5b9250929050565b5f805f8060608587031215610959576109586106fa565b5b5f85013567ffffffffffffffff811115610976576109756106fe565b5b610982878288016108ec565b945094505060206109958782880161078a565b92505060406109a68782880161078a565b91505092959194509250565b5f80fd5b5f80fd5b5f80fd5b5f80833560016020038436030381126109da576109d96109b2565b5b80840192508235915067ffffffffffffffff8211156109fc576109fb6109b6565b5b602083019250600182023603831315610a1857610a176109ba565b5b509250929050565b5f819050919050565b610a3a610a35826106a7565b610a20565b82525050565b5f819050919050565b610a5a610a558261076b565b610a40565b82525050565b5f610a6b8285610a29565b600482019150610a7b8284610a49565b6020820191508190509392505050565b5f80fd5b5f80fd5b5f8085851115610aa657610aa5610a8b565b5b83861115610ab757610ab6610a8f565b5b6001850283019150848603905094509492505050565b5f82905092915050565b5f82821b905092915050565b5f610aee8383610acd565b82610af981356106a7565b92506004821015610b3957610b347fffffffff0000000000000000000000000000000000000000000000000000000083600403600802610ad7565b831692505b505092915050565b5f604082019050610b545f8301856106d2565b610b6160208301846106d2565b9392505050565b5f610b738284610a49565b60208201915081905092915050565b5f81905092915050565b828183375f83830152505050565b5f610ba58385610b82565b9350610bb2838584610b8c565b82840190509392505050565b5f610bca828486610b9a565b91508190509392505050565b7f4e487b71000000000000000000000000000000000000000000000000000000005f52602160045260245ffd5b7f72697363302e52656365697074436c61696d00000000000000000000000000005f82015250565b5f610c37601283610b82565b9150610c4282610c03565b601282019050919050565b5f610c5782610c2b565b9150819050919050565b5f81519050610c6f81610774565b92915050565b5f60208284031215610c8a57610c896106fa565b5b5f610c9784828501610c61565b91505092915050565b5f63ffffffff82169050919050565b5f8160e01b9050919050565b5f610cc582610caf565b9050919050565b610cdd610cd882610ca0565b610cbb565b82525050565b5f61ffff82169050919050565b5f8160f01b9050919050565b5f610d0682610cf0565b9050919050565b610d1e610d1982610ce3565b610cfc565b82525050565b5f610d2f828b610a49565b602082019150610d3f828a610a49565b602082019150610d4f8289610a49565b602082019150610d5f8288610a49565b602082019150610d6f8287610a49565b602082019150610d7f8286610ccc565b600482019150610d8f8285610ccc565b600482019150610d9f8284610d0d565b6002820191508190509998505050505050505050565b5f610dbf826107c9565b610dc98185610b82565b9350610dd98185602086016107e3565b80840191505092915050565b5f610df08284610db5565b915081905092915050565b7f72697363302e4f757470757400000000000000000000000000000000000000005f82015250565b5f610e2f600c83610b82565b9150610e3a82610dfb565b600c82019050919050565b5f610e4f82610e23565b9150819050919050565b5f610e648287610a49565b602082019150610e748286610a49565b602082019150610e848285610a49565b602082019150610e948284610d0d565b6002820191508190509594505050505056fea264697066735822122084868a71cc0b2795b83f439513a5248eb74fc3e5ff3321cb5bffc693cf5f6bb764736f6c634300081a0033","linkReferences":{}},"methodIdentifiers":{"_setTestVerifier(address)":"9b8b30c8","approve(address,uint256)":"095ea7b3","balanceOf(address)":"70a08231","getApproved(uint256)":"081812fc","isApprovedForAll(address,address)":"e985e9c5","name()":"06fdde03","ownerOf(uint256)":"6352211e","prover()":"32a8f30f","safeTransferFrom(address,address,uint256)":"42842e0e","safeTransferFrom(address,address,uint256,bytes)":"b88d4fde","setApprovalForAll(address,bool)":"a22cb465","supportsInterface(bytes4)":"01ffc9a7","symbol()":"95d89b41","tokenIdToMetadataUri(uint256)":"e9997c52","tokenURI(uint256)":"c87b56dd","transferFrom(address,address,uint256)":"23b872dd","verifier()":"2b7ac3f3","verify(((bytes4,bytes32[8],uint8),bytes32,uint256,(address,bytes4,uint256,uint256,bytes32)),string,address)":"72745ff6"},"id":75}