{"abi":[{"type":"function","name":"DATA_URL","inputs":[],"outputs":[{"name":"","type":"string","internalType":"string"}],"stateMutability":"view"},{"type":"function","name":"main","inputs":[{"name":"webProof","type":"tuple","internalType":"struct WebProof","components":[{"name":"webProofJson","type":"string","internalType":"string"}]},{"name":"account","type":"address","internalType":"address"},{"name":"application","type":"address","internalType":"address"}],"outputs":[{"name":"","type":"tuple","internalType":"struct Proof","components":[{"name":"seal","type":"tuple","internalType":"struct Seal","components":[{"name":"verifierSelector","type":"bytes4","internalType":"bytes4"},{"name":"seal","type":"bytes32[8]","internalType":"bytes32[8]"},{"name":"mode","type":"uint8","internalType":"enum ProofMode"}]},{"name":"callGuestId","type":"bytes32","internalType":"bytes32"},{"name":"length","type":"uint256","internalType":"uint256"},{"name":"callAssumptions","type":"tuple","internalType":"struct CallAssumptions","components":[{"name":"proverContractAddress","type":"address","internalType":"address"},{"name":"functionSelector","type":"bytes4","internalType":"bytes4"},{"name":"settleChainId","type":"uint256","internalType":"uint256"},{"name":"settleBlockNumber","type":"uint256","internalType":"uint256"},{"name":"settleBlockHash","type":"bytes32","internalType":"bytes32"}]}]},{"name":"","type":"string","internalType":"string"},{"name":"","type":"address","internalType":"address"},{"name":"","type":"address","internalType":"address"}],"stateMutability":"view"},{"type":"function","name":"proof","inputs":[],"outputs":[{"name":"","type":"tuple","internalType":"struct Proof","components":[{"name":"seal","type":"tuple","internalType":"struct Seal","components":[{"name":"verifierSelector","type":"bytes4","internalType":"bytes4"},{"name":"seal","type":"bytes32[8]","internalType":"bytes32[8]"},{"name":"mode","type":"uint8","internalType":"enum ProofMode"}]},{"name":"callGuestId","type":"bytes32","internalType":"bytes32"},{"name":"length","type":"uint256","internalType":"uint256"},{"name":"callAssumptions","type":"tuple","internalType":"struct CallAssumptions","components":[{"name":"proverContractAddress","type":"address","internalType":"address"},{"name":"functionSelector","type":"bytes4","internalType":"bytes4"},{"name":"settleChainId","type":"uint256","internalType":"uint256"},{"name":"settleBlockNumber","type":"uint256","internalType":"uint256"},{"name":"settleBlockHash","type":"bytes32","internalType":"bytes32"}]}]}],"stateMutability":"pure"},{"type":"function","name":"setBlock","inputs":[{"name":"blockNo","type":"uint256","internalType":"uint256"}],"outputs":[],"stateMutability":"nonpayable"},{"type":"function","name":"setChain","inputs":[{"name":"chainId","type":"uint256","internalType":"uint256"},{"name":"blockNo","type":"uint256","internalType":"uint256"}],"outputs":[],"stateMutability":"nonpayable"},{"type":"error","name":"FailedInnerCall","inputs":[]}],"bytecode":{"object":"0x6080604052348015600e575f5ffd5b50611c568061001c5f395ff3fe608060405234801561000f575f5ffd5b5060043610610055575f3560e01c806312aa7c2d1461005957806387cea3ae1461008c5780639bb2bd7f146100a8578063faf924cf146100c6578063ffbc5638146100e4575b5f5ffd5b610073600480360381019061006e9190610cac565b610100565b6040516100839493929190611018565b60405180910390f35b6100a660048036038101906100a19190611090565b6101af565b005b6100b061028c565b6040516100bd91906110bb565b60405180910390f35b6100ce6102ab565b6040516100db91906110db565b60405180910390f35b6100fe60048036038101906100f991906110f5565b6102c0565b005b610108610af4565b60605f5f5f6101446040518061018001604052806101518152602001611a22610151913989610136906112bc565b6103a090919063ffffffff16565b90505f61018f6040518060400160405280600b81526020017f73637265656e5f6e616d650000000000000000000000000000000000000000008152508361042390919063ffffffff16565b90506101996102ab565b8189899550955095509550505093509350935093565b7f2ae215ce9fde588adfdea92976dc9aa45aa006a0f63942d8f9f21bd4537972a35f1c73ffffffffffffffffffffffffffffffffffffffff166387cea3ae826040518263ffffffff1660e01b815260040161020a91906112dd565b6020604051808303815f875af1158015610226573d5f5f3e3d5ffd5b505050506040513d601f19601f8201168201806040525081019061024a919061132b565b610289576040517f08c379a0000000000000000000000000000000000000000000000000000000008152600401610280906113a0565b60405180910390fd5b50565b6040518061018001604052806101518152602001611a22610151913981565b6102b3610af4565b6102bb610558565b905090565b7f2ae215ce9fde588adfdea92976dc9aa45aa006a0f63942d8f9f21bd4537972a35f1c73ffffffffffffffffffffffffffffffffffffffff1663ffbc563883836040518363ffffffff1660e01b815260040161031d9291906113be565b6020604051808303815f875af1158015610339573d5f5f3e3d5ffd5b505050506040513d601f19601f8201168201806040525081019061035d919061132b565b61039c576040517f08c379a0000000000000000000000000000000000000000000000000000000008152600401610393906113a0565b60405180910390fd5b5050565b6103a8610b26565b5f6103b4845f5f61056f565b90506103c381602001516106b2565b6103da8382604001516108c190919063ffffffff16565b610419576040517f08c379a00000000000000000000000000000000000000000000000000000000081526004016104109061142f565b60405180910390fd5b8091505092915050565b60605f835f0151511161046b576040517f08c379a000000000000000000000000000000000000000000000000000000000815260040161046290611497565b60405180910390fd5b5f6040518060400160405280855f015181526020018481525060405160200161049491906115ac565b60405160208183030381529060405290505f5f600273f4e4fdca9d5d55e64525e314391996a15f7ec6006104c891906115f9565b73ffffffffffffffffffffffffffffffffffffffff16836040516104ec9190611684565b5f60405180830381855afa9150503d805f8114610524576040519150601f19603f3d011682016040523d82523d5f602084013e610529565b606091505b509150915061053882826108e8565b508080602001905181019061054d9190611708565b935050505092915050565b610560610af4565b610568610af4565b8091505090565b610577610b26565b5f5f5f73f4e4fdca9d5d55e64525e314391996a15f7ec60061059991906115f9565b73ffffffffffffffffffffffffffffffffffffffff168686866040516020016105c493929190611802565b6040516020818303038152906040526040516105e09190611684565b5f60405180830381855afa9150503d805f8114610618576040519150601f19603f3d011682016040523d82523d5f602084013e61061d565b606091505b509150915061062c82826108e8565b505f81806020019051810190610642919061190e565b905060405180606001604052808260026004811061066357610662611955565b5b602002015181526020018260036004811061068157610680611955565b5b60200201518152602001825f6004811061069e5761069d611955565b5b602002015181525093505050509392505050565b6106ba61090c565b1561072e576106ea816040518060e0016040528060ae8152602001611b7360ae91396108c190919063ffffffff16565b610729576040517f08c379a0000000000000000000000000000000000000000000000000000000008152600401610720906119cc565b60405180910390fd5b6108be565b610736610929565b156107fe5761074361099d565b73ffffffffffffffffffffffffffffffffffffffff16632505a3bd826040518263ffffffff1660e01b815260040161077b91906110bb565b602060405180830381865afa158015610796573d5f5f3e3d5ffd5b505050506040513d601f19601f820116820180604052508101906107ba919061132b565b6107f9576040517f08c379a00000000000000000000000000000000000000000000000000000000081526004016107f0906119cc565b60405180910390fd5b6108bd565b6108066109b8565b73ffffffffffffffffffffffffffffffffffffffff16632505a3bd826040518263ffffffff1660e01b815260040161083e91906110bb565b602060405180830381865afa158015610859573d5f5f3e3d5ffd5b505050506040513d601f19601f8201168201806040525081019061087d919061132b565b6108bc576040517f08c379a00000000000000000000000000000000000000000000000000000000081526004016108b3906119cc565b60405180910390fd5b5b5b50565b5f815183511480156108e0575081805190602001208380519060200120145b905092915050565b6060826108fd576108f8826109d3565b610905565b819050610906565b5b92915050565b5f610915610a17565b806109245750610923610a2f565b5b905090565b5f60014614806109395750600a46145b806109445750608946145b80610950575061014446145b8061095c57506101e046145b8061096857506102eb46145b80610974575061210546145b80610980575061a4b146145b8061098c575061a4ba46145b80610998575061e70846145b905090565b5f7342fc5cdbfa5e4699c0e1e0add0c4bc421d80482f905090565b5f73ad04462241343f0775315b2873e6fe6dffcce831905090565b5f815111156109e55780518082602001fd5b6040517f1425ea4200000000000000000000000000000000000000000000000000000000815260040160405180910390fd5b5f617a69461480610a2a57506204991946145b905090565b5f5f5f601e73f4e4fdca9d5d55e64525e314391996a15f7ec600610a5391906115f9565b73ffffffffffffffffffffffffffffffffffffffff16604051610a7590611a0d565b5f60405180830381855afa9150503d805f8114610aad576040519150601f19603f3d011682016040523d82523d5f602084013e610ab2565b606091505b5091509150811580610ac457505f8151145b15610ad3575f92505050610af1565b5f81806020019051810190610ae8919061132b565b90508093505050505b90565b6040518060800160405280610b07610b47565b81526020015f81526020015f8152602001610b20610b9d565b81525090565b60405180606001604052806060815260200160608152602001606081525090565b60405180606001604052805f7bffffffffffffffffffffffffffffffffffffffffffffffffffffffff19168152602001610b7f610bfc565b81526020015f6001811115610b9757610b96610e00565b5b81525090565b6040518060a001604052805f73ffffffffffffffffffffffffffffffffffffffff1681526020015f7bffffffffffffffffffffffffffffffffffffffffffffffffffffffff191681526020015f81526020015f81526020015f81525090565b604051806101000160405280600890602082028036833780820191505090505090565b5f604051905090565b5f5ffd5b5f5ffd5b5f5ffd5b5f60208284031215610c4957610c48610c30565b5b81905092915050565b5f73ffffffffffffffffffffffffffffffffffffffff82169050919050565b5f610c7b82610c52565b9050919050565b610c8b81610c71565b8114610c95575f5ffd5b50565b5f81359050610ca681610c82565b92915050565b5f5f5f60608486031215610cc357610cc2610c28565b5b5f84013567ffffffffffffffff811115610ce057610cdf610c2c565b5b610cec86828701610c34565b9350506020610cfd86828701610c98565b9250506040610d0e86828701610c98565b9150509250925092565b5f7fffffffff0000000000000000000000000000000000000000000000000000000082169050919050565b610d4c81610d18565b82525050565b5f60089050919050565b5f81905092915050565b5f819050919050565b5f819050919050565b610d8181610d6f565b82525050565b5f610d928383610d78565b60208301905092915050565b5f602082019050919050565b610db381610d52565b610dbd8184610d5c565b9250610dc882610d66565b805f5b83811015610df8578151610ddf8782610d87565b9650610dea83610d9e565b925050600181019050610dcb565b505050505050565b7f4e487b71000000000000000000000000000000000000000000000000000000005f52602160045260245ffd5b60028110610e3e57610e3d610e00565b5b50565b5f819050610e4e82610e2d565b919050565b5f610e5d82610e41565b9050919050565b610e6d81610e53565b82525050565b61014082015f820151610e885f850182610d43565b506020820151610e9b6020850182610daa565b506040820151610eaf610120850182610e64565b50505050565b5f819050919050565b610ec781610eb5565b82525050565b610ed681610c71565b82525050565b60a082015f820151610ef05f850182610ecd565b506020820151610f036020850182610d43565b506040820151610f166040850182610ebe565b506060820151610f296060850182610ebe565b506080820151610f3c6080850182610d78565b50505050565b61022082015f820151610f575f850182610e73565b506020820151610f6b610140850182610d78565b506040820151610f7f610160850182610ebe565b506060820151610f93610180850182610edc565b50505050565b5f81519050919050565b5f82825260208201905092915050565b8281835e5f83830152505050565b5f601f19601f8301169050919050565b5f610fdb82610f99565b610fe58185610fa3565b9350610ff5818560208601610fb3565b610ffe81610fc1565b840191505092915050565b61101281610c71565b82525050565b5f6102808201905061102c5f830187610f42565b81810361022083015261103f8186610fd1565b905061104f610240830185611009565b61105d610260830184611009565b95945050505050565b61106f81610eb5565b8114611079575f5ffd5b50565b5f8135905061108a81611066565b92915050565b5f602082840312156110a5576110a4610c28565b5b5f6110b28482850161107c565b91505092915050565b5f6020820190508181035f8301526110d38184610fd1565b905092915050565b5f610220820190506110ef5f830184610f42565b92915050565b5f5f6040838503121561110b5761110a610c28565b5b5f6111188582860161107c565b92505060206111298582860161107c565b9150509250929050565b5f5ffd5b7f4e487b71000000000000000000000000000000000000000000000000000000005f52604160045260245ffd5b61116d82610fc1565b810181811067ffffffffffffffff8211171561118c5761118b611137565b5b80604052505050565b5f61119e610c1f565b90506111aa8282611164565b919050565b5f5ffd5b5f5ffd5b5f5ffd5b5f67ffffffffffffffff8211156111d5576111d4611137565b5b6111de82610fc1565b9050602081019050919050565b828183375f83830152505050565b5f61120b611206846111bb565b611195565b905082815260208101848484011115611227576112266111b7565b5b6112328482856111eb565b509392505050565b5f82601f83011261124e5761124d6111b3565b5b813561125e8482602086016111f9565b91505092915050565b5f6020828403121561127c5761127b611133565b5b6112866020611195565b90505f82013567ffffffffffffffff8111156112a5576112a46111af565b5b6112b18482850161123a565b5f8301525092915050565b5f6112c73683611267565b9050919050565b6112d781610eb5565b82525050565b5f6020820190506112f05f8301846112ce565b92915050565b5f8115159050919050565b61130a816112f6565b8114611314575f5ffd5b50565b5f8151905061132581611301565b92915050565b5f602082840312156113405761133f610c28565b5b5f61134d84828501611317565b91505092915050565b7f4661696c6564206368656174636f646520696e766f636174696f6e00000000005f82015250565b5f61138a601b83610fa3565b915061139582611356565b602082019050919050565b5f6020820190508181035f8301526113b78161137e565b9050919050565b5f6040820190506113d15f8301856112ce565b6113de60208301846112ce565b9392505050565b7f55524c206d69736d6174636800000000000000000000000000000000000000005f82015250565b5f611419600c83610fa3565b9150611424826113e5565b602082019050919050565b5f6020820190508181035f8301526114468161140d565b9050919050565b7f426f647920697320656d707479000000000000000000000000000000000000005f82015250565b5f611481600d83610fa3565b915061148c8261144d565b602082019050919050565b5f6020820190508181035f8301526114ae81611475565b9050919050565b5f60029050919050565b5f81905092915050565b5f819050919050565b5f82825260208201905092915050565b5f6114ec82610f99565b6114f681856114d2565b9350611506818560208601610fb3565b61150f81610fc1565b840191505092915050565b5f61152583836114e2565b905092915050565b5f602082019050919050565b5f611543826114b5565b61154d81856114bf565b93508360208202850161155f856114c9565b805f5b8581101561159a578484038952815161157b858261151a565b94506115868361152d565b925060208a01995050600181019050611562565b50829750879550505050505092915050565b5f6020820190508181035f8301526115c48184611539565b905092915050565b7f4e487b71000000000000000000000000000000000000000000000000000000005f52601160045260245ffd5b5f61160382610c52565b915061160e83610c52565b9250828201905073ffffffffffffffffffffffffffffffffffffffff81111561163a576116396115cc565b5b92915050565b5f81519050919050565b5f81905092915050565b5f61165e82611640565b611668818561164a565b9350611678818560208601610fb3565b80840191505092915050565b5f61168f8284611654565b915081905092915050565b5f6116ac6116a7846111bb565b611195565b9050828152602081018484840111156116c8576116c76111b7565b5b6116d3848285610fb3565b509392505050565b5f82601f8301126116ef576116ee6111b3565b5b81516116ff84826020860161169a565b91505092915050565b5f6020828403121561171d5761171c610c28565b5b5f82015167ffffffffffffffff81111561173a57611739610c2c565b5b611746848285016116db565b91505092915050565b5f602083015f8301518482035f86015261176982826114e2565b9150508091505092915050565b6002811061178757611786610e00565b5b50565b5f81905061179782611776565b919050565b5f6117a68261178a565b9050919050565b6117b68161179c565b82525050565b600281106117cd576117cc610e00565b5b50565b5f8190506117dd826117bc565b919050565b5f6117ec826117d0565b9050919050565b6117fc816117e2565b82525050565b5f6060820190508181035f83015261181a818661174f565b905061182960208301856117ad565b61183660408301846117f3565b949350505050565b5f67ffffffffffffffff82111561185857611857611137565b5b602082029050919050565b5f5ffd5b5f6118796118748461183e565b611195565b9050806020840283018581111561189357611892611863565b5b835b818110156118da57805167ffffffffffffffff8111156118b8576118b76111b3565b5b8086016118c589826116db565b85526020850194505050602081019050611895565b5050509392505050565b5f82601f8301126118f8576118f76111b3565b5b6004611905848285611867565b91505092915050565b5f6020828403121561192357611922610c28565b5b5f82015167ffffffffffffffff8111156119405761193f610c2c565b5b61194c848285016118e4565b91505092915050565b7f4e487b71000000000000000000000000000000000000000000000000000000005f52603260045260245ffd5b7f496e76616c6964206e6f74617279207075626c6963206b6579000000000000005f82015250565b5f6119b6601983610fa3565b91506119c182611982565b602082019050919050565b5f6020820190508181035f8301526119e3816119aa565b9050919050565b50565b5f6119f85f8361164a565b9150611a03826119ea565b5f82019050919050565b5f611a17826119ed565b915081905091905056fe68747470733a2f2f6170692e782e636f6d2f312e312f6163636f756e742f73657474696e67732e6a736f6e3f696e636c7564655f6578745f73686172696e675f617564696f7370616365735f6c697374656e696e675f646174615f776974685f666f6c6c6f776572733d7472756526696e636c7564655f6d656e74696f6e5f66696c7465723d7472756526696e636c7564655f6e7366775f757365725f666c61673d7472756526696e636c7564655f6e7366775f61646d696e5f666c61673d7472756526696e636c7564655f72616e6b65645f74696d656c696e653d7472756526696e636c7564655f616c745f746578745f636f6d706f73653d74727565266578743d73736f436f6e6e656374696f6e7326696e636c7564655f636f756e7472795f636f64653d7472756526696e636c7564655f6578745f646d5f6e7366775f6d656469615f66696c7465723d747275652d2d2d2d2d424547494e205055424c4943204b45592d2d2d2d2d0a4d465977454159484b6f5a497a6a3043415159464b34454541416f445167414565306a786e424f6261496a37586a673654584c434d3147472f566859353635300a4f72532f6a6763624275666f2f51446646764c2f69727a4976314a536d684769566373434843776f6c684458576367653776324973513d3d0a2d2d2d2d2d454e44205055424c4943204b45592d2d2d2d2d0aa264697066735822122041a280961d0cf448a2463377bf80962c03a216e1696788629ac635c94ed2c20364736f6c634300081c0033","linkReferences":{}},"methodIdentifiers":{"DATA_URL()":"9bb2bd7f","main((string),address,address)":"12aa7c2d","proof()":"faf924cf","setBlock(uint256)":"87cea3ae","setChain(uint256,uint256)":"ffbc5638"},"id":57}